:020000040800F2
:10000000C84600206D020008792D0008C3250008AD
:10001000C52C00087B050008013500080000000021
:10002000000000000000000000000000AD0100081A
:10003000D10D000800000000090200086D2E000824
:10004000870200088702000887020008870200086C
:10005000870200088702000887020008870200085C
:10006000870200088702000887020008870200084C
:10007000870200088702000887020008870200083C
:1000800087020008870200088702000800000000BD
:1000900000000000000000000000000087020008CF
:1000A00087020008AD2F00088702000887020008B9
:1000B00087020008870200088702000887020008FC
:1000C00087020008870200088702000887020008EC
:1000D00087020008F53400088702000800000000CD
:1000E000870200088702000887020008000000005D
:1000F000000000000000000000000000870200086F
:10010000000000008702000887020008870200083C
:1001100000000000000000000000000000000000DF
:10012000870200088702000887020008870200088B
:10013000870200080000000000000000000000002E
:10014000000000000000000000000000870200081E
:10015000870200088702000887020008870200085B
:10016000870200088702000800000000000000006D
:10017000000000000000000000000000000000007F
:1001800000000000870200080000000000000000DE
:100190008702000887020008DFF80CD000F07AF927
:1001A00000480047E9390008C84600202C4B196870
:1001B0000868B0E8F04F80F30988BFF36F8F4FF005
:1001C000000080F3118870470000000008480068B4
:1001D000006880F308884FF0000080F3148862B64E
:1001E00061B6BFF34F8FBFF36F8F00DF00BF00BF5B
:1001F00008ED00E0DFF80C00016841F470010160D7
:10020000704700BF88ED00E0EFF30980BFF36F8F08
:10021000134B1A681EF0100F08BF20ED108A20E95A
:10022000F04F106009B44FF0500080F31188BFF315
:100230004F8FBFF36F8F03F089FF4FF0000080F303
:10024000118809BC19680868B0E8F04F1EF0100F5B
:1002500008BFB0EC108A80F30988BFF36F8F704736
:1002600020000020EFF3058070470000064880471B
:1002700006480047FEE7FEE7FEE7FEE7FEE7FEE78B
:10028000FEE7FEE7FEE7FEE7292F000899010008D8
:100290002DE9F05F0546002092469B4688460646BB
:1002A000814640241BE0284641464746224600F04E
:1002B000A9F853465A46C01A914110D31146184620
:1002C000224600F090F82D1A67EB01084F462246AF
:1002D0000120002100F087F817EB00094E41201E95
:1002E000A4F10104DFDC484631462A464346BDE816
:1002F000F09FA0F14101192900D82030704740EA51
:1003000001039B0703D009E008C9121F08C0042A93
:10031000FAD203E011F8013B00F8013B521EF9D27A
:100320007047D2B201E000F8012B491EFBD27047A2
:100330000022F6E710B513460A4604461946FFF7B1
:10034000F0FF204610BD10B5044604E00B7800F81D
:10035000013B03B1491C521EF8D2204610BD421C7D
:1003600010F8011B0029FBD1801A704710B500223C
:1003700000E0521C835C8C5CA34201D1002BF8D1BD
:10038000D8B2E1B2401A10BD70B50F4D00B928685F
:10039000002412E00A4602E09E4203D0521C137869
:1003A000002BF9D1DAB2224305D02BB124B10021C0
:1003B00000F8011B04E00446401C0678002EE9D139
:1003C0002860204670BD0000A400002070B50646DD
:1003D00003F0B8F8046805460A220021304600F010
:1003E00021F82C6070BD202A04DB203A00FA02F1CB
:1003F000002070479140C2F1200320FA03F3194313
:1004000090407047202A04DB203A21FA02F00021B4
:10041000704721FA02F3D040C2F120029140084314
:10042000194670472DE9F04791460F46804604462D
:10043000002614F8015B2DB100F03EF80068405D25
:10044000C007F6D12B2D02D02D2D18D0641E4A46A0
:100450003946204600F034F827B13968A14201D16D
:10046000C7F8008071054FF002040BD54042002808
:1004700003DD03F067F80460A007BDE8F08746F4E9
:100480008066E4E70028F8DA03F05CF804606FF0B7
:100490000040F2E7064C074D06E0E06840F001033B
:1004A00094E8070098471034AC42F6D3FFF778FE83
:1004B000444600086446000800487047104600089B
:1004C0002DE9F05F82460078002715468B460AF139
:1004D0000104B946302801D09DB113E014F8010B96
:1004E0000127782803D0582801D045B10AE00DB182
:1004F000102D07D10027102514F8010B02E0082564
:1005000000E00A250026B0460EE005FB080005FBCA
:1005100006F1012701EB10461FFA80F8B6F5803F7F
:1005200000D3B94614F8010B294600F018F800284A
:10053000EBDABBF1000F05D00FB1641E00E05446AA
:10054000CBF80040B9F1000F06D002F0FBFF02210A
:100550000160C81EBDE8F09F48EA0640FAE73A2865
:1005600000D2303820F02002412A01D3A2F1370016
:10057000884201D34FF0FF307047FEE710B51021DD
:100580000748FFF7D5FE07480021418081800170B0
:100590000122411CBDE81040034801F09BBF000050
:1005A000584100208E000020A00300202DE9F043D8
:1005B000A1B001467F2201A8FFF7C5FE00208DF8FB
:1005C000830001AC04E000BFFFF793FE04F8010BC9
:1005D00020780028F8D18CA101A8FFF7D5FE0400EF
:1005E0001ED08BA1FFF7C2FEE8B18BA12046FFF71A
:1005F000BDFE00283CD08AA12046FFF7B7FE0028A8
:1006000054D088A12046FFF7B1FE00286BD02046C9
:10061000FFF7A5FE002803D0214684A002F072FF58
:1006200021B0BDE8F0838DA002F06CFF02F090FCD9
:10063000014691A002F066FF02F084FC014691A001
:1006400002F060FF02F078FC01280FD090A192A088
:1006500002F058FF94480068016C0091C36B826BF4
:10066000416B92A002F04EFF96A0BFE09BA1EEE787
:1006700065A10020FFF788FE04000BD099A1FFF7C9
:1006800075FE48B199A12046FFF770FE48B121469A
:1006900098A0C3E7A2A0A9E0012002F06FFCA7A0E8
:1006A000A4E0002002F06AFCB0A09FE056A1002068
:1006B000FFF76AFE04000CD0B5A1FFF757FE50B15A
:1006C0002046FFF783FE0446062806D30146B1A064
:1006D000A4E7B8A08AE0BDA088E0E0B202F0A4F9E7
:1006E0002146C7A09AE748A10020FFF74DFE04006D
:1006F00019D0C9A1FFF73AFEB8B1C9A12046FFF74A
:1007000035FEB0B1C8A12046FFF730FE4FF47A782D
:1007100098B12046FFF75AFE461E0546042E57D3D1
:100720002946C2A07AE7C9A060E002F01FFBD2A070
:100730005CE002F0C8FAD6A058E033A10020FFF731
:1007400023FE064630A10020FFF71EFE05462EA11F
:100750000020FFF719FE81462BA10020FFF714FEB1
:1007600004462EB325B3B9F1000F21D004B33046AF
:10077000FFF72CFE07462846FFF728FE06464846A8
:10078000FFF724FE05462046FFF720FE41460446BB
:100790008F420BD2002E09DB8E4207DA002D05DBDB
:1007A0008D4203DA002C01DB444503DBBCA01DE0D5
:1007B000C2A01BE0A3B2AAB2B1B2B8B202F0A2FAD0
:1007C0002B4632463946C7A0009402F09BFE27E72D
:1007D0000DA10020FFF7D8FD38B1FFF7F7FD044663
:1007E000404506D30146AEA018E7C7A002F08AFE36
:1007F00016E7A1B2F0B202F09BFA22462946C9A040
:1008000002F080FE0CE7000020090D0A0000000045
:10081000696E666F000000006D6F64650000000087
:100820006C6564006D6F746F72000000556E6B6EC6
:100830006F776E3A20272573272E205472793A203D
:100840004D4F44452C204C45442C204D4F544F5285
:100850002C20494E464F0D0A000000003D3D3D2032
:10086000447261676F6E466C7920496E666F203DF9
:100870003D3D0D0A000000005469636B3A20256C71
:10088000750D0A0053746174653A2025640D0A00E1
:100890004155544F00000000436F6E74726F6C3A04
:1008A0002025730D0A000000580300204D6F746F5F
:1008B000723A2025642025642025642025640D0AD1
:1008C000000000003D3D3D3D3D3D3D3D3D3D3D3D4C
:1008D0003D3D3D3D3D3D3D3D3D0D0A004D414E55AB
:1008E000414C00006D616E75616C00006175746F44
:1008F000000000004D4F44453A20696E76616C69F6
:100900006420272573272C20757365204155544F8B
:10091000206F72204D414E55414C0D0A00000000E1
:1009200055736167653A204D4F4445203C4155540D
:100930004F7C4D414E55414C3E0D0A00436F6E7445
:10094000726F6C206D6F64653A204D414E55414C7D
:1009500020286D6F746F722076616C7565732070DE
:100960007265736572766564290D0A00436F6E7453
:10097000726F6C206D6F64653A204155544F20288A
:1009800050494420636F6E74726F6C290D0A000029
:100990003F0000004C45443A20696E76616C696402
:1009A000206D6F64652025642028302D35290D0ABF
:1009B0000000000055736167653A204C4544203CB7
:1009C000302D357C3F3E0D0A000000004C45442090
:1009D0006D6F6465207175657279206E6F7420612A
:1009E0007661696C61626C652028757365206B6E39
:1009F0006F776E2076616C7565290D0A0000000026
:100A00004C4544206D6F64652073657420746F20BD
:100A100025640D0A0000000073746F700000000070
:100A200069646C6500000000616C6C004D4F544FB0
:100A3000523A20696E76616C6964206D6F746F72D2
:100A40002025642028312D34290D0A005573616753
:100A5000653A204D4F544F52203C312D347C414C4F
:100A60004C7C53544F507C49444C453E205B64754C
:100A700074795D0D0A0000004D4F544F523A2061C9
:100A80006C6C2073746F707065640D0A0000000058
:100A90004D4F544F523A2069646C650D0A000000B6
:100AA0004D4F544F523A2064757479206D757374AC
:100AB00020626520302D3939390D0A005573616780
:100AC000653A204D4F544F5220414C4C203C6431EC
:100AD0003E203C64323E203C64333E203C64343E45
:100AE0000D0A00004D4F544F523A204D313D2564C0
:100AF000204D323D2564204D333D2564204D343D4D
:100B000025640D0A0000000055736167653A204DA9
:100B10004F544F52203C312D343E203C6475747943
:100B20003E0D0A004D4F544F5220256420736574CA
:100B300020746F2025640D0A0000000070B50026A7
:100B4000154D164C16E0207820B1291811F8012C0B
:100B50000D2A06D02E5410B10F48FFF727FD26703E
:100B600008E001F8016CF7E721787F2902D2685488
:100B7000491C21706188A08881420BD00649A08859
:100B80008039085CA188491C01F07F01A1800A28F6
:100B9000EAD1D8E770BD0000E84100208E000020B7
:100BA000064910B54A888B88521C02F07F029A428F
:100BB00003D0034B4C8818554A8010BD8E0000208E
:100BC00068410020FFF7BAFF012002F031FFF9E78A
:100BD000DFED1D2A9FED1D3ADFED1D3A00B5B0EEA9
:100BE000622AF0EE431AB2EE041AF0EE630AB7EE90
:100BF000080A184802F00CF91648B0EE622AF0EE26
:100C0000431AB2EE041AF0EE630AB7EE080A203077
:100C100002F0FEF80F48B0EE622AF0EE431AB1EE91
:100C2000041ADFED0D0AB0EE080A403002F0F0F8C9
:100C30000B489FED0A0A80ED030A80ED020A80ED61
:100C4000010A80ED000A00BD0000C8430000C84250
:100C50000AD7A33C684200200AD7233C00000000CA
:100C60009400002000B52DED028B83B09FED528AD9
:100C700002F062F901280CD0684601F043FE02F050
:100C800061F9022809D002F05DF9032805D002F0CD
:100C90006DF803B0BDEC028B00BD484BDDED000AE2
:100CA000B0EE481A93ED000A454802F067F8444850
:100CB000B0EE403ADDED010AB0EE481A93ED010ABC
:100CC000203002F05BF83E48F0EE402ADDED020AEB
:100CD000B0EE481A93ED020A403002F04FF8D3ED1F
:100CE000030AB0EE402A384870EE833A30EEC33A39
:100CF00033EEE20A70EE421A33EE220AF5EEC01A23
:100D000030EE421A33EEA20A70EE020A33EE620AA5
:100D1000DFED2E2A30EE020A9FED2A2AF1EE10FABC
:100D200002D2F0EE421A05E011EE901A814201DD86
:100D3000F0EE621AB5EEC01AF1EE10FA02D2B0EE81
:100D4000421A05E011EE101A814201DDB0EE621A7E
:100D5000F5EEC00AF1EE10FA02D2F0EE420A05E01A
:100D600010EE901A814201DDF0EE620AB5EEC00A83
:100D7000F1EE10FA02D2B0EE420A05E010EE101ABF
:100D8000814201DDB0EE620ABCEEC00A10EE100A2C
:100D9000BCEEE00A83B210EE100ABCEEC10A82B2C9
:100DA00010EE100ABCEEE10A81B210EE100A80B219
:100DB00001F0A8FF6DE700006F12833A9400002055
:100DC000684200200000000000C0794400C079445F
:100DD000704772B6FEE72DE9F0410446876D00F0DA
:100DE0004BF9064694F835000025022806D08020ED
:100DF000606584F834500120BDE8F0812068016806
:100E000021F0160101602068416921F080014161F3
:100E1000206C08B9A06C20B12068016821F008019D
:100E200001602068016821F0010101600CE000F020
:100E300023F9801B052807D920206065032084F84A
:100E4000350084F83450D7E720680068C007EED139
:100E500094F85C103F208840B860012084F8350089
:100E600084F834500020C7E790F83510022903D0E9
:100E70008021416501207047052180F83510006808
:100E8000016821F001010160002070472DE9F84F51
:100E9000DFF8B8A10022012403254FF00F090AF161
:100EA000040BAAF1040E00BF0B6804FA02F63340EB
:100EB000B34273D10F7907F00307012F01D0022F3E
:100EC00016D187684FEA420805FA08FC27EA0C07A2
:100ED000D1F80CC00CFA08FC4CEA070CC0F808C0AA
:100EE0004768B7430E79C6F3001696403E43466006
:100EF0000E79F643B6070DD0C768560005FA06FC12
:100F000027EA0C07D1F808C00CFA06FC4CEA070CDB
:100F1000C0F80CC00E7906F00306022E10D1D608D8
:100F200000EB8608D8F8206057074FEAD76C09FA1B
:100F30000CF7BE430F6907FA0CF73743C8F8207067
:100F400006684FEA420C05FA0CF7BE430F7907F02A
:100F5000030707FA0CF7374307604E6816F4403F63
:100F60006DD03B4E376847F480473760366822F0D3
:100F7000030706F480460096364E07EB060CDCF8B5
:100F8000086897073F0F09FA07F826EA0806DFF80E
:100F9000C880404503D14FF000081EE04FE0DFF865
:100FA000BC80404502D14FF0010816E0DFF8B08068
:100FB000404502D14FF002080FE0DFF8A88040451D
:100FC00002D14FF0030808E0DFF89C80404502D1D1
:100FD0004FF0040801E04FF0070808FA07F848EA64
:100FE0000608CCF80888DAF800605746D1F804C043
:100FF0009E435FEACC2C00D51E433E60DBF80060C8
:101000005F46D1F804C09E435FEA8C2C00D51E4396
:101010003E60DEF800607746D1F804C09E435FEA88
:101020008C3C00D51E433E60084F083F3E68D1F817
:1010300004C09E435FEACC3C00D51E433E60521C78
:10104000102AFFF431AFBDE8F88F0000083C0140E2
:1010500044380240003001400000024000040240D9
:1010600000080240000C0240001002400AB18161F9
:1010700070470904FBE700000148806870470000E2
:101080001000002070B5040025D094F83D00002524
:1010900020B984F83C50204600F0BAF9242084F8A6
:1010A0003D002068016821F00101016020680168AD
:1010B00041F4004101602068016821F400410160B1
:1010C00000F058FB4D4A6168914201D84C4900E05C
:1010D0004C49884201D2012070BD4B492368B0FBC6
:1010E000F1F15E6826F03F060E435E60636893424E
:1010F00006D94FF4967359434FF47A73B1FBF3F169
:101100002368491C1E6A26F03F0631431962616854
:10111000914210D84900401EB0FBF1F2521CC2F3BC
:101120000B02042A01D2042022E0B0FBF1F0401CA3
:10113000C0F30B001CE0A268F2B301EBC10303EBA8
:101140000116431EB3FBF6F35B1C43F480431B05FF
:1011500049D092B301EBC10202EB0111401EB0FB7A
:10116000F1F0401CC0F30B0040F4804040F400401C
:101170002168CA694CF6FF739A431043C861D4E9E9
:10118000071001432068026822F0C0021143016089
:10119000D4E9030101432068826848F2FF339A438F
:1011A00011438160D4E9050108432168CA6822F02F
:1011B000FF021043C86001E00EE016E020680168FD
:1011C00041F0010101602564202084F83D00256381
:1011D00084F83E50002070BD01EB4106431EB3FB76
:1011E000F6F35B1CB3E70120C2E701EB4101401EAF
:1011F000B0FBF1F0401CC0F30B00B7E7A086010084
:1012000080841E0000093D0040420F002DE9FF4F81
:1012100083B09A46DDE9118793460446DDF8409095
:10122000FFF72AFF054694F83D00202870D11923C6
:10123000012274492046009501F05AFA0028F5D1A0
:1012400094F83C00012863D0012084F83C00206819
:101250000168C90703D1016841F0010101602068FC
:10126000016821F400610160222084F83D004020E3
:1012700084F83E0000262664C4F82490A4F82A804E
:10128000608D20856048E062CDE9007553465A467E
:101290002046049901F0AEF9002879D1208DD0B113
:1012A000012821D00228206824D04169806900905B
:1012B000208D032866D801282BD0544902283B46AC
:1012C0004FF00002009557D08846204601F010FAF2
:1012D00000285DD13AE02068416981690091016888
:1012E00041F4007101607DE02068016821F48061B3
:1012F0000160F0E7016821F4806101602068016805
:1013000041F400610160206841698069009069E0F2
:1013100075E02A463946204601F090FA88BB54E031
:101320002068016841F40071016020680069616A09
:101330000870606A401C6062218D491E2185618DA4
:10134000491E618521680969017042E020680168D1
:1013500021F48061016020680069616A0870606A38
:10136000401C6062208D401E2085608D401E60857F
:101370003B46002241460095204601F0B9F900B9EC
:10138000CEE705E02A463946204601F057FA18B163
:10139000012007B0BDE8F08F20680069616A08701D
:1013A000606A401C6062208D401E81B22185608D84
:1013B000401E608520684269D243520712D4032937
:1013C00003D1016821F48061016020680069616ACD
:1013D0000870606A401C6062208D401E2085608D10
:1013E000401E6085208D00287FF462AF202084F8A5
:1013F0003D0084F83E6084F83C600020C9E702208C
:10140000C7E70000020010000000FFFF0400010019
:1014100010B586B0044614216846FEF789FF1349CB
:101420002068884220D112480021026842F002025E
:101430000260006800F002000590C02000901220B9
:10144000CDE9010103200390042004906946094876
:10145000FFF71CFD06481030016841F400110160DF
:10146000006800F40010059006B010BD0054004064
:10147000303802400004024002488168027811447A
:1014800081607047100000200B4810B5016841F4DE
:1014900000710160016841F480610160016841F4FC
:1014A00080710160032000F099F80F2000F006F829
:1014B00000F04AF8002010BD003C024030B505465F
:1014C0001C4887B00024016841F4003101600068C5
:1014D00006A900F40030009001A800F02BF900F0FC
:1014E00059F91549154AB0FBF1F11548491E02603A
:1014F00040F2E732C0E90324C0E90114846100F03E
:1015000081FB040012D10E4800F0BEFB04000DD197
:10151000192000F035F8102D07D200222946192095
:1015200000F03CF80748056000E0012407B02046C1
:1015300030BD00004438024040420F0000440140EA
:10154000E8030020140000200C4882B0016841F438
:1015500080410160006800F4804000900748001F4F
:10156000016841F0805101600068002200F0805065
:1015700000900F21901E02B000F010B844380240D5
:10158000002809DB00F01F02012191404009800082
:1015900000F1E020C0F8001170470000F0B40E4BDD
:1015A0001B680C46C3F30223C3F10705042D00D9C1
:1015B0000425191D072901D2002300E0DB1E0126A6
:1015C00006FA05F1491E214099409E40761E1640BC
:1015D0003143F0BC01F0A6BF0CED00E0064900F07D
:1015E000070208684FF6FF03184040EA0220034A4A
:1015F00010430860704700000CED00E00000FA05A1
:101600002DE9F0470E46050065D0DFF81481D8F8C3
:101610000000F7B200F00700B04207D288F800706F
:10162000D8F8000000F00700B04254D128683D4CC3
:10163000810712D5400703D5206840F4E0502060B0
:101640002878000703D5206840F4604020602068B7
:10165000A96820F0F000084320602878C0072DD04A
:10166000304968680839012812D0022813D00328AD
:1016700011D00968890700292DDA216821F00301BA
:1016800001432160FFF7F8FC814641F2883A0EE001
:1016900009688903EFE709688901ECE7FFF7ECFCCB
:1016A000A0EB0901514502D90320BDE8F08720686D
:1016B000696800F00C00B0EB810FEFD1D8F8001092
:1016C000404601F00701B14207D90770006800F0F9
:1016D0000700B04201D00120E7E72878400705D590
:1016E0002068E96820F4E05008432060287800076B
:1016F00006D52068296920F4604040EAC1002060D6
:1017000000F058F82168084AC1F30311515CC84041
:101710000649086006480068FFF7D0FE0020C4E7CD
:10172000003C024008380240644500081C000020CC
:10173000140000200F2202600C4A136803F0030318
:101740004360136803F0F0038360136803F4E0530D
:10175000C36012684FF4E05303EAD2020261044806
:10176000006800F007000860704700000838024079
:10177000003C02400448054900680968044AC1F376
:101780008221515CC84070471C000020083802408C
:10179000744500080448054900680968044AC1F313
:1017A0004231515CC84070471C000020083802409C
:1017B00074450008154810B5006810F00C02144874
:1017C00013D01449042A0FD0082A0ED10F4C241F1D
:1017D0002268236802F03F025B0207D52068C0F34D
:1017E0008810A0FB010106E0084610BD2168C1F386
:1017F0008811A1FB00010023FEF74AFD2168C1F317
:101800000141491C4900B0FBF1F010BD083802400D
:101810000024F40040787D012DE9F84F04006ED0DB
:101820002078DFF84C93C007A9F104054AD009F1EC
:1018300004000168C1F38101012908D00068C0F3E8
:10184000810002280AD1D9F80000400206D5286894
:10185000800337D560680028E1D033E06068B0F5D8
:10186000803F10D0B0F5A02F286810D020F4803031
:101870002860286820F4802028606068A8B1FFF7FD
:10188000FBFB06460DE0286840F48030F4E740F4A6
:1018900080202860F7E700BFFFF7EEFB801B64287D
:1018A00073D828688003F7D50CE0FFF7E5FB064600
:1018B00005E000BFFFF7E0FB801B6428F0D8286834
:1018C0008003F7D42078DFF8AC8280074FF0000A5D
:1018D0003ED5A748001D016811F00C0F08D0006824
:1018E000C0F3810002280BD1D9F80000400207D4D0
:1018F0002868800716D5E068012800D112E033E19E
:10190000E068B8B10120C8F80000FFF7B5FB064653
:1019100005E000BFFFF7B0FB801B0228C0D8286895
:101920008007F7D52868216920F0F80040EAC10057
:1019300028600DE0C8F800A0FFF79EFB064604E013
:10194000FFF79AFB801B02281FD828688007F7D46E
:101950002078000722D5864F87486169703771B1BA
:1019600001210160FFF788FB064604E0FFF784FBD6
:10197000801B022809D838688007F7D50EE0C0F828
:1019800000A0FFF779FB064605E082E0FFF774FB55
:10199000801B02287DD838688007F7D4207840075C
:1019A00068D5DFF8CCB100270BF13C0BDBF8000069
:1019B000C0000BD4DBF8001041F08051CBF80010D0
:1019C000DBF80000012700F0805000906B4E30687B
:1019D000C00510D4306840F480703060FFF74CFBD5
:1019E000009005E0FFF748FB0099401A022850D804
:1019F0003068C005F6D55E4EA0686C3601280FD061
:101A00000528306810D020F001003060306820F0E8
:101A100004003060A068B8B1FFF72EFB00900FE023
:101A2000306840F00100F4E740F004003060F7E770
:101A3000FFF722FB0099411A41F28830814266D8B3
:101A400030688007F4D50EE0FFF716FB009007E042
:101A5000FFF712FB0099411A41F28830814256D8B3
:101A600030688007F4D42FB1DBF8001021F08051EA
:101A7000CBF80010A069C8B33D49091D0968C1F33E
:101A8000810102294AD00228504607D0C8F86000D8
:101A900000E03CE0FFF7F0FA04463BE04746C8F8B8
:101AA0006000FFF7E9FA064605E000BFFFF7E4FA39
:101AB000801B02282BD828688001F7D4D4E90701BD
:101AC0000843A16A2E4A490802EB0141626A41EAD1
:101AD0008211084394F82C1040EA0161C9F8001003
:101AE00001203866FFF7C8FA044606E03EE000BF72
:101AF000FFF7C2FA001B022809D828688001F7D531
:101B000034E000BFFFF7B8FA001B022802D9032017
:101B1000BDE8F88F28688001F4D427E00128F7D0C9
:101B2000D9F80000E26900F4800191421CD1226AD8
:101B300000F03F01914217D147F6C071626A01403F
:101B4000B1EB821F10D1A26A4FF0FF3300F4403195
:101B500003EB5202B1EB024F06D194F82C1000F0C7
:101B60007060B0EB016F01D00120D1E70020CFE71A
:101B70000438024000004742800E47420070004097
:101B80000000FFFF7047704770B590F83C20012AB5
:101B90002CD0012480F83C40022280F83D200368CC
:101BA0005A689D6822F070060A6832435A60104BEA
:101BB00002689A420ED0B2F1804F0BD00D4B9A4280
:101BC00008D00D4B9A4205D00C4B9A4202D00C4BD8
:101BD0009A4204D1496825F080031943916080F846
:101BE0003D40002180F83C10084670BD022070BDC9
:101BF000000001400004004000080040000C0040CC
:101C00000040014010B5040003D094F83D0010B12D
:101C100007E0012010BD002084F83C00204600F0C1
:101C20001FF8022084F83D00211D206801F0C4F94E
:101C3000012084F8460084F83E0084F83F0084F8D0
:101C4000400084F8410084F8420084F8430084F89E
:101C5000440084F8450084F83D00002010BD0000D9
:101C600008B500680649884208D10648016841F075
:101C700002010160006800F00200009008BD000051
:101C8000000400404038024090F83D10012901D086
:101C900001207047022180F83D100168CA6842F0B7
:101CA0000102CA6000680E4988420ED0B0F1804F30
:101CB0000BD00C49884208D00B49884205D00B490B
:101CC000884202D00A49884204D1816801F00701A4
:101CD000062903D0016841F001010160002070472E
:101CE000000001400004004000080040000C0040DB
:101CF0000040014070B5044690F83C0000250128E2
:101D000017D0012684F83C60022084F83D0020684A
:101D1000826822F0770222F47F42826008685028AD
:101D200038D00DDC20284FD005DC90B3102811D11D
:101D30004AE0022070BD302846D040280AD13BE05E
:101D400060282FD070280DD0B0F5805F03D0B0F59B
:101D5000005F12D0012584F83D60002084F83C002B
:101D6000284670BDCB68D1E90121206801F081F9D6
:101D70002068816841F0770109E0CB68D1E9012151
:101D8000206801F076F92068816841F48041816023
:101D9000E1E719E0CA684968206801F01FFA50219C
:101DA000206806E0CA684968206801F028FA6021C6
:101DB000206801F068F9CEE7CA684968206801F038
:101DC0000DFA40212068F4E7226801461046F0E74A
:101DD00070472DE9F04104460068C66805694FF078
:101DE0000007A90713D5B10711D5F91E016101201C
:101DF0002077206880698007204602D0FFF7E8FF3F
:101E000004E000F0BBF8204600F04DF927776807A2
:101E100016D5700714D521686FF004000861022000
:101E200020772068806910F4407F204602D0FFF7B9
:101E3000CFFF04E000F0A2F8204600F034F9277745
:101E4000280715D5300713D521686FF00800086101
:101E5000042020772068C0698007204602D0FFF761
:101E6000B7FF04E000F08AF8204600F01CF927775D
:101E7000E80616D5F00614D521686FF01000086149
:101E8000082020772068C06910F4407F204602D0E7
:101E9000FFF79EFF04E000F071F8204600F003F920
:101EA0002777E80708D0F00706D021686FF0010017
:101EB0000861204600F050F9280608D5300606D5FE
:101EC00021686FF0800008612046FFF75BFE68061E
:101ED00008D5700606D521686FF0400008612046DD
:101EE00000F044F9A8060AD5B00608D521686FF0BD
:101EF000200008612046BDE8F041FFF744BEBDE880
:101F0000F081000030B587B0044614216846FEF722
:101F10000FFA16492068884226D115480024016826
:101F200041F001010160016801F0010105910168C2
:101F300041F0020101600068022500F002000590F6
:101F4000C0200090CDE9015469460A48CDE9034517
:101F5000FEF79CFF03200090CDE901546946064836
:101F6000CDE90345FEF792FF07B030BD0004004005
:101F7000303802400000024000040240704770B553
:101F8000044690F83C0000260D4601280FD00120A1
:101F900084F83C006AB1042A1DD0082A2FD00C2AEC
:101FA0003FD00126002084F83C00304670BD02205E
:101FB00070BD206801F070F82068816941F0080167
:101FC00081612068816921F0040181612068816953
:101FD0002A69114311E0206801F086F820688169C0
:101FE00041F4006181612068816921F4806181612F
:101FF000206881692A6941EA02218161D2E720686B
:1020000001F09EF82068C16941F00801C1612068B3
:10201000C16921F00401C1612068C1692A691143C5
:1020200011E0206801F0B8F82068C16941F400614E
:10203000C1612068C16921F48061C1612068C16902
:102040002A6941EA0221C161ACE710B5040003D05E
:1020500094F83D0010B107E0012010BD002084F885
:102060003C00204600F01EF8022084F83D00211DAF
:10207000206800F0A1FF012084F8460084F83E00AB
:1020800084F83F0084F8400084F8410084F842005E
:1020900084F8430084F8440084F8450084F83D0047
:1020A000002010BD7047704710B50446022249B1A8
:1020B00004290ED0082913D094F84100012816D025
:1020C000012010BD94F83E000128F9D184F83E208B
:1020D0000FE094F83F000128F2D184F83F2008E097
:1020E00094F840000128EBD184F8402001E084F806
:1020F00041200122206800F0AFFF12492068884289
:1021000003D1426C42F400424264206888420ED0FF
:10211000B0F1804F0BD00C49884208D00B4988425F
:1021200005D00B49884202D00A49884204D181680F
:1021300001F00701062903D0016841F001010160A7
:10214000002010BD000001400004004000080040D5
:10215000000C00400040014000680349884201D162
:10216000FFF78AB97047000000440140704770478C
:1021700070470000F8B5016804460868CA684B69F2
:1021800010F00F0F4FF0000559D003F0010602F4D4
:102190009077374365D0C10705D0D10503D5616C71
:1021A00041F001016164410705D5D90703D0616C95
:1021B00041F002016164810705D5D90703D0616C44
:1021C00041F004016164010707D502F020013143A9
:1021D00003D0616C41F008016164616C00293AD060
:1021E000800604D5900602D5204601F048F8206804
:1021F0004069616CC0F38010090700D460B32046C9
:1022000001F016F820684069400621D52068143096
:1022100050E8001F21F0400140E80012002AF5D1EB
:10222000E06BA8B172490165E06BFEF71DFE002866
:1022300011D0E06B016D01B0BDE8F04008478306A6
:102240000FD593060DD52046BDE8F84001F017B82C
:102250002046FFF78DFFF8BD2046FFF789FF656434
:10226000F8BD266B2023012E7ED1C6067CD5D6066E
:102270007AD508684868009048694FF00206400621
:102280004DD5E26B106840684FF480770004000C75
:102290003AD0A18D814237D9E085D069B8422DD09E
:1022A00020680C3050E8001F21F4807140E80012D3
:1022B000002AF5D12068143050E8001F21F00101F8
:1022C00040E80012002AF5D12068143050E8001FC1
:1022D00021F0400140E80012002AF5D184F8423094
:1022E000256320680C3050E8001F21F0100140E801
:1022F0000012002AF5D1E06BFEF76DFD6663A08D3C
:10230000E18D401A81B206E0A18D8142A8D1D06949
:10231000B842A5D166632046FFF729FFF8BDA08D1E
:10232000E18D401A81B2E08D0028F7D00029F5D068
:1023300020680C3050E8002F22F4907240E800270B
:10234000002FF5D12068143050E8002F22F0010250
:1023500040E80027002FF5D184F84230256320683B
:102360000C3050E8002F00E006E022F0100240E8B8
:102370000023002BF3D1CDE705062BD5150629D573
:1023800094F841002128C9D1A068B0F5805F01D13F
:102390002069B0B1206A411C216221680078486040
:1023A000E08C401E0004000CE084B7D12068C168B6
:1023B00021F08001C1602068C16841F04001C16026
:1023C000F8BD206A0088C0F308004860206A801CBD
:1023D0002062E5E74006F3D55006F1D5CA682046ED
:1023E00022F04002CA6084F8413000F0E9F8F8BDFC
:1023F0002332000870B5040004D094F84100002591
:1024000010B106E0012070BD84F84050204600F075
:1024100023F8242084F841002068C16821F4005189
:10242000C160204600F08CFF2068016921F49041D2
:1024300001612068416921F02A0141612068C16879
:1024400041F40051C1606564202084F8410084F8A3
:1024500042006563002070BD10B586B004461421AB
:102460006846FDF765FF18492068884229D117485A
:102470000021026842F010020260006800F01000C3
:10248000059012481438026842F0010202600068A8
:1024900000F0010005904FF4C06000900220CDE9EB
:1024A0000101032003900720049069460848FEF7C5
:1024B000EDFC002205212520FFF770F82520FFF70D
:1024C0005FF806B010BD0000001001404438024023
:1024D0000000024090F84230202B01D002207047CB
:1024E00021B11AB10023036300F0B0BF012070478F
:1024F00010B50068074988420BD107484078FEF7BD
:102500004FFB05490122BDE81040491C0348FFF775
:10251000E1BF10BD001001408E000020A00300208C
:102520002DE9F843044690F84100984616460D46BA
:10253000202802D00220BDE8F88385B17EB10020BA
:102540006064212084F84100FEF796FDA684814650
:10255000E684A0682027B0F5805F02D003E0012068
:10256000E9E7206910B12E4600250EE000260CE0B8
:102570008021204600F085FFA8B9C6B116F8010BEE
:1025800021684860E08C401EE084E08C4B464FF0B0
:102590000002CDF800800028EAD14FF0400120462B
:1025A00000F06FFF40B184F841700320C3E735F8B5
:1025B000020BC0F30800E3E784F841700020BAE79B
:1025C0007047FEE701684A69D24352050FD46FF4A1
:1025D00080624A61002140F8301F202242738173DB
:1025E000026942F004020261017301207047002079
:1025F000704700002DE9F84F0446006889460B9D9E
:1026000001689846174641F48061016020680168BE
:1026100041F48071016000954FF0011B0022594682
:1026200020460A9B00F064F84FF4007A40B120681D
:102630000068C00501D5C4F840A00320BDE8F88FAC
:10264000216809F0FE0008612B46284920460A9AB5
:1026500000F096F8F0BB20684169806900902A4636
:1026600020460A9900F022F940B1206C04283AD1A2
:102670002068016841F40071016034E0FEB2B8F1F5
:10268000010F09D02168380A08612A4620460A99B4
:1026900000F00CF90028E8D1206806612A4620469F
:1026A0000A9900F003F90028DFD12068016841F49D
:1026B0008071016000950022594620460A9B00F077
:1026C00017F80028B3D1216809F0FF0040F001009D
:1026D000086100E007E02B46044920460A9A00F012
:1026E0004FF80028AAD00120A8E70000020001004E
:1026F0002DE9F047984617460D460446C1F30746B4
:10270000DDF820902AE000BFB8F1FF3F26D0FEF7A9
:10271000B3FCA0EB0901414502D8B8F1000F1DD16F
:102720002068012E16D0806925EA00000004000C04
:1027300012D00020B84211D1002044F8300F2021DF
:102740006173A073216941F0200121612073012090
:10275000BDE8F0874069E7E70120EBE72068012E3C
:102760000AD0806925EA00000004000C06D0002091
:10277000B842C9D00020EBE74069F3E70120F7E752
:102780002DE9F047984616460D4604464FF00009DD
:102790004FF0200AC1F3074723E020684069C04397
:1027A000400515D42068016841F40071016021687A
:1027B0006FF480604861C4F8309084F83DA084F8DC
:1027C0003E90216C41F00401216484F83C9021E0AA
:1027D000701C06D0FEF750FCA0EB0800B04203D8F6
:1027E00016B1012F1FD021E02068012F15D080697C
:1027F00025EA00000004000C18D000BF44F8309F08
:1028000084F80DA084F80E90216941F02001216127
:1028100084F80C900120BDE8F087406925EA0000AB
:102820000004000CEAD12068406901E0206880695A
:1028300025EA00000004000CAFD1ECE72DE9F041DF
:10284000002590460E460446202728E04069C043F4
:10285000C0060CD454F8301B6FF01000486144F8E7
:1028600010596777A577206A2062257714E0FEF774
:1028700003FCA0EB0800B04200D886B9206840698C
:10288000C04340060BD544F8305F6773A5732069D9
:1028900040F02000206125730120BDE8F081206810
:1028A0004169C9434906D1D40020F6E770B5164600
:1028B0000D4604461EE02046FFF784FE08B10120C5
:1028C00070BD681C16D0FEF7D7FB801BA84200D84D
:1028D00085B920684069C04300060BD5002044F844
:1028E000300F20216173A073216941F02001216123
:1028F0002073E4E720684069C0430006DBD4002071
:1029000070BD000000280CD0064991ED070A80ED4B
:10291000000A91ED080A80ED010A91ED090A80EDA7
:10292000020A7047304100207FB525489FED230AF9
:10293000012480ED000A80ED010A80ED020A80ED9D
:10294000030A80ED040A80ED050A80ED060A80ED99
:10295000070A80ED080A80ED090A03ADCDE90054AD
:10296000642623467522D22116480296FEF74EFCB5
:102970009DF80C1014A000F0C5FD0020CDE9005416
:102980008DF80C0001230D22EC210E480296FEF773
:102990003DFC9DF80C1011A000F0B4FDCDE90054F1
:1029A00001230D22EE2107480296FEF72FFC9DF829
:1029B0000C1010A000F0A6FD7FBD0000000000007C
:1029C0003041002004030020494D552057484F4115
:1029D0004D493A203078253032580A0053504C3156
:1029E0002057484F414D493A203078253032580A17
:1029F0000000000053504C322057484F414D493A97
:102A0000203078253032580A00000000704700005E
:102A10000349022000220870C1010248FEF726BBCC
:102A20008C0000200004024001490870704700003B
:102A30008C0000201B4EDFF870904FF4FA750027D1
:102A40004FF480783078062816D2DFE800F00306CD
:102A50000D0F11132C46002201E02C4601224146A5
:102A60004846FEF703FB08E02C460DE0C8240BE0C7
:102A7000642409E014240EE02C463078022803D0A8
:102A8000032801D0042806D14FB100273A46414619
:102A90004846FEF7EBFA204600F0CAFFD2E70127CE
:102AA0003A46F4E78C0000200004024010B59CB0C8
:102AB0001C2216496846FDF722FC0021684600F0FA
:102AC000C3FF134C11491C2220601C3107A8FDF7DD
:102AD00016FC002107A800F0B7FF0C4960601C221B
:102AE00038310EA8FDF70BFC00210EA800F0ACFF5A
:102AF0000649A0601C22543115A8FDF700FC0021F6
:102B000015A800F0A1FFE0601CB010BDF44400085F
:102B10000000002070B586B014216846FDF708FC5F
:102B200016480024016841F080010160016801F04D
:102B300080010591016841F001010160016801F027
:102B400001010591016841F00201016000680C4E2D
:102B500000F002004FF480750590002229463046AF
:102B6000FEF784FA01200095CDE90104694630465C
:102B70000394FEF78BF906B070BD000030380240B8
:102B8000000402400D4810B50B4901600C4941603A
:102B900000214FF480428160C0E9031241618161EC
:102BA000C1610162FEF76EFA002803D0BDE8104053
:102BB000FEF70FB910BD00000054004004030020D0
:102BC000801A060010B58EB000240794089409946A
:102BD0000A940B941C2168460C94FDF7A9FB2A4823
:102BE0002849C0E900144FF6FF71C0E902410461B1
:102BF0008461FFF707F808B1FEF7EBF84FF4805057
:102C0000079007A92048FFF775F808B1FEF7E1F82B
:102C10001D48FFF71AFA08B1FEF7DBF80B940BA971
:102C200019480C94FEF7B0FF08B1FEF7D2F8602007
:102C3000CDE9000402940022694613480494FFF78A
:102C40009EF908B1FEF7C5F8042269460E48FFF761
:102C500096F908B1FEF7BDF8082269460A48FFF761
:102C60008EF908B1FEF7B5F80C2269460648FFF761
:102C700086F908B1FEF7ADF80348FFF743F90EB047
:102C800010BD000000040040580300200C4810B59F
:102C90000A4901604FF4E1314160002181600C225A
:102CA000C160C0E904128161C161FFF7A3FB002884
:102CB00003D0BDE81040FEF78CB810BD00100140F5
:102CC000A0030020FEE732231A461946184600F0FA
:102CD00019B8000010B500210948FFF7E5F90421F3
:102CE0000748FFF7E1F908210548FFF7DDF90C2156
:102CF0000348FFF7D9F9BDE8104000F037B80000ED
:102D00005803002030B50C4601461546002000F05F
:102D10000FF82146012000F00BF82946022000F0B0
:102D200007F8BDE830401946032000F001B8000064
:102D300004280FD2B1F57A7F01D340F2E731094A76
:102D400052F82020084800682AB1042A05D0082A31
:102D500005D0016470474163704781637047C16368
:102D6000704700007C4500085803002000231A46E5
:102D700019461846FFF7C6BFFEE7000070EE600A6E
:102D8000D0ED031A90ED000A40EE811A20EE200AE1
:102D9000C0ED031A90ED042AF4EEC21AF1EE10FA17
:102DA00006DCB1EE422AF4EEC21AF1EE10FA01D2BC
:102DB00080ED032AD0ED011A90ED032A11EE101ACE
:102DC000124A01EE820A91420BDD90ED052AD0ED08
:102DD000021A30EEC22A61EE821A81EE812A32EEA8
:102DE000000AC0ED050AD0ED060AF4EEC00AF1EEC5
:102DF00010FA01D2B0EE600AD0ED070AF4EEC00A74
:102E0000F1EE10FA01DDB0EE600A704717B7D13865
:102E100080EC030A9FED070A80ED030AC0ED041A57
:102E200080ED050A80ED062AB1EE420A80ED070A20
:102E3000704700000000000000F0ACF8FFF7E6FD6E
:102E4000FDF710FF012000F0F3FDF5E710B5044693
:102E5000FFF7DEFD2046BDE81040FFF7EBBDFDF7B4
:102E6000B1BE642000F0E4FDFBE7000010B5502087
:102E700080F31188BFF34F8FBFF36F8F01F072FAA9
:102E800018B104494FF080500860002080F3118889
:102E900010BD000004ED00E030B593B0302168466D
:102EA000FDF746FA14210CA8FDF742FA1C4800244D
:102EB000016841F080510160006800F0805011907D
:102EC0001848016841F4404101600068022500F49F
:102ED0004040119001200390102004900095069529
:102EE0000820CDE907406420CDE9090504200B90B6
:102EF0006846FEF791FC08B172B6FEE70F20CDE9F7
:102F00000C054FF48050CDE90E4003210CA810941D
:102F1000FEF776FB002801D072B6FEE713B030BD95
:102F200040380240007000400248016841F47001DE
:102F30000160704788ED00E001484078704700006C
:102F40002041002001480078704700002041002007
:102F500001480068704700008800002005490020F3
:102F60000870487088704860886008734873024928
:102F70000860704720410020880000200149487007
:102F80007047000020410020014908707047000090
:102F90002041002003480168491C01600068024983
:102FA0004860704788000020204100200148FEF75B
:102FB00010BF0000E8030020F0B502681F4B204C52
:102FC000204D214E4FF0804C984207D0604505D0EF
:102FD000A04203D0A84201D0B04203D122F0700732
:102FE0004A683A43984210D060450ED0A0420CD0B7
:102FF000A8420AD0B04208D0144CA04205D0144CCC
:10300000A04202D0134CA04203D122F44074CA68FB
:1030100022434C6922F0800222438C68C4620C680F
:103020008462984201D109690163016841F0040199
:103030000160012141610260F0BD0000000001401B
:103040000004004000080040000C00400040014027
:10305000004401400048014010B501F01F03012168
:10306000046A99408C430462016A9A4011430162E8
:1030700010BD10B5846842EA032224F47F440A4359
:103080002243826010BD826822F070020A4342F03F
:10309000070181607047000030B5036A026A22F0C0
:1030A000010202624268846924F073050C682C43B3
:1030B00023F002058B682B430A4DA8420BD123F065
:1030C0000805CB6822F440722B434D6923F00403BA
:1030D00015438A692A4342608461496841630362F7
:1030E00030BD00000000014030B5026A036A23F0E1
:1030F00010030362436884690D6824F4E64444EADB
:1031000005248D6822F0200242EA05120B4DA842E8
:103110000ED1CD6822F0800242EA05124D6923F4F7
:10312000406343EA85038D6922F0400243EA850348
:103130004360846149688163026230BD00000140E0
:1031400030B5036A026A22F4807202624268C4697E
:1031500023F4007324F073050C682C438D6843EA54
:1031600005230C4DA8420ED1CD6823F4006343EA39
:1031700005234D6922F4405242EA05128D6923F479
:10318000806342EA05124260C4614968C163036218
:1031900030BD00000000014030B5046A026A22F42C
:1031A000805202624268C3690D6823F4E64343EA31
:1031B00005238D6824F4005444EA0534064DA842E2
:1031C00004D14D6922F4804242EA85124260C36113
:1031D00049680164046230BD0000014010B5036A13
:1031E000046A24F001040462846924F0F00444EACF
:1031F000021423F00A020A438461026210BD10B572
:10320000036A046A24F010040462846923F0A003B2
:1032100024F4704444EA023243EA011182610162FB
:1032200010BD10B5806B0021C185FEF7A1FF10BD58
:1032300001680C3151E8002F22F4907241E800231C
:10324000002BF5D10168143151E8002F22F0010262
:1032500041E80023002BF5D1016B012909D1016858
:103260000C3151E8002F22F0100241E80023002B1E
:10327000F5D1202180F8421000210163704708B584
:1032800090F84210222901D0022008BD82684FF434
:1032900080539A4201D1016921B1816A9A421BD0BF
:1032A0004AB10AE00268816A5268C2F308020A80E1
:1032B000816A891C08E0026972B10268526802F0F2
:1032C0007F020A70816A491C8162C18D491E09040E
:1032D000090CC18503D01BE002685268F1E7016860
:1032E000CA6822F02002CA600168CA6822F48072AB
:1032F000CA6001684A6922F001024A61202180F80F
:10330000421000214163026B012A03D0FFF7F0F85D
:10331000002008BD016301680C3151E8002F22F044
:10332000100241E80023002BF5D101680A68D2069B
:1033300002D50A6849680091818DFEF718FFE7E71A
:1033400070B5044600680169E26821F440511143F8
:1033500001612169A068E26908436169114308437A
:103360002168CA6849F20C639A430243CA60206824
:103370004169A26921F440711143416131492068DA
:10338000884202D03049884202D1FEF703FA01E0B8
:10339000FEF7F0F9E2690023192164253226B2F51F
:1033A000004F626828D0A0FB0101930F9200FCF748
:1033B0006FFF0146B0FBF5F06FF01802504301EBD0
:1033C000800006EB0010B0FBF5F000F0F002B1FB5E
:1033D000F5F002EB0012B1FBF5F06FF01803584363
:1033E00001EB800006EB0010B0FBF5F000F00F00E1
:1033F00021681044886070BDA0FB010192185B41F8
:10340000FCF746FF0146B0FBF5F00201B1FBF5F019
:103410006FF01803584301EB800006EBC000B0FBCF
:10342000F5F000F0F80002EB4002B1FBF5F0584374
:1034300001EB800006EBC000B0FBF5F000F00700E8
:10344000D6E700000010014000140140816282852F
:10345000C28500214164222180F84210016921B116
:103460000168CA6842F48072CA6001684A6942F021
:1034700001024A610068C16841F02001C16000207A
:1034800070472DE9F843984617460D460446089EB6
:1034900024E0701C22D0FDF7EFFDA0EB0800B04245
:1034A0001AD8CEB12068C168490717D5802D15D02C
:1034B000402D13D00168C94309070FD401680025C6
:1034C000406800902046FFF7B3FE0820606484F84F
:1034D00040500120BDE8F8830320FBE72068006826
:1034E00035EA000004D00020B842D2D00020F1E735
:1034F0000120F9E70148FEF73DBE0000A0030020CF
:10350000FEE700000FB4054B10B503A9044A02986A
:1035100000F02CF810BC5DF814FB0000D139000855
:10352000A80000200907090E002804DB00F1E020B4
:1035300080F80014704700F00F0000F1E02080F8E0
:10354000141D704700487047AC00002002E008C816
:10355000121F08C1002AFAD170477047002001E00D
:1035600001C1121F002AFBD1704700002DE9FF4F57
:103570008DB00F460546002606E025280BD0DDE974
:103580000F1290476D1C761C28780028F5D111B0D9
:103590003046BDE8F08F0024A246A1460122EC4946
:1035A00000E0044315F8013F203B02FA03F0084213
:1035B000F7D128782A2810D06FF02F022878A0F1B0
:1035C0003001092914D80AEB8A0102EB410144F0C9
:1035D000020400EB010A6D1CF0E701CF5FEA000A6C
:1035E00003D544F40054CAF1000A44F002046D1CEF
:1035F00028782E2817D115F8010F44F004042A2842
:103600000ED06FF02F022878A0F1300109290AD8D6
:1036100009EB890102EB410100EB01096D1CF2E7A6
:1036200057F8049B6D1C28786C280FD006DC4C28BA
:1036300017D068280DD06A2814D104E0742810D05F
:103640007A280FD10DE044F400140AE044F4801409
:1036500001E044F440146978814202D104F58014F9
:103660006D1C6D1C2A786E2A1FD00CDC632A31D0A9
:1036700004DC002A8BD0582A11D1A3E0642A68D038
:10368000692A0CD165E0732A2ED004DC6F2A73D02E
:10369000702A04D19BE0752A6FD0782A6ED010462C
:1036A000DDE90F129047761C50E1C4F30250022866
:1036B00006D0032809D0042801CF09D0066045E1CF
:1036C00001CFF117C0E9006140E101CF06803DE183
:1036D00006703BE117F8040B8DF8000000208DF810
:1036E0000100EB46012003E057F804BB4FF0FF3028
:1036F00061074FF0000102D40DE008F10101884696
:1037000049450FDA8045F8DB1BF808100029F4D191
:1037100008E008F1010188468142FADB1BF8081035
:103720000029F6D1DDE90F23AAEB080081462146E6
:1037300000F036F9304400EB080604E0DDE90F1232
:103740001BF8010B9047B8F10108F7D22146484613
:10375000F7E00A21C4F302534FF0000B0891022B4B
:1037600004D001CFC117032B09D00AE0FF1D27F0B9
:103770000707F7E8020108E032E01FE020E000B2AE
:10378000C117042B01D140B2C117031E71F1000310
:1037900007DA4FF0000CD0EB0C006CEB01012D238D
:1037A00002E0230504D52B238DF82430012303E008
:1037B000E30701D02023F7E7984658E00A2110E0FC
:1037C00010210EE010204FF0000B08900CE01021AB
:1037D0004FF0000B44F004044FF00809089103E097
:1037E00008214FF0000B0891C4F30253022B04D0C0
:1037F00001CF0021032B06D006E0FF1D27F00707AD
:10380000F7E8020103E080B2042B00D1C0B24FF010
:10381000000823072BD5702A07D0DDF820C08CF0D4
:10382000100C5CEA0B0C05D00EE040238DF8243020
:10383000012308E050EA010306D030238DF824303C
:103840008DF8252002239846DDF820C08CF0080C66
:103850005CEA0B0C0BD150EA010301D1630706D5DA
:1038600030238DF824304FF00108A9F10109582ABE
:1038700004D038A20B9208AA0A920BE03AA2F9E708
:103880005B46089AFCF704FD0B9B9B5C0A9A521E50
:103890000A92137050EA0102F2D10A98ADEB0000CF
:1038A00000F1200B600702D524F4803401E04FF0D2
:1038B0000109D94502DDA9EB0B0000E0002000EB77
:1038C0000B0141440890AAEB010AE00306D4DDE9AC
:1038D0000F232146504600F063F806444FF00009DC
:1038E00008E009A911F80900DDE90F12904709F174
:1038F0000109761CC145F4DBE0030CD5DDE90F239B
:103900002146504600F04CF8064404E0DDE90F1271
:1039100030209047761C0899481E08900029F5DC55
:1039200008E00A980A990078491C0A91DDE90F120B
:103930009047761CBBF10001ABF1010BF1DC214695
:103940005046DDE90F2300F019F806446D1C1BE614
:103950000928010030313233343536373839616265
:103960006364656600000000303132333435363729
:103970003839414243444546000000002DE9F041FA
:10398000044600251E461746880404D405E039463F
:103990002020B0476D1C641EF9D52846BDE8F08193
:1039A0002DE9F041044600251E469046C80301D586
:1039B000302700E02027880404D505E0414638463A
:1039C000B0476D1C641EF9D52846BDE8F0810000A3
:1039D00013B54FF0FF33012269460248FEF7A0FD00
:1039E00000981CBDA0030020FDF74EFDFFF754FA20
:1039F000FFF790F8FFF7E6F8FFF748F9FFF7C2F88E
:103A0000FFF7ACFAFFF766F9FEF78EFFFCF7B6FD9D
:103A1000FDF7DEF80120FFF7B7FAFFF747F800F0EF
:103A20000EF8FEE701460020842900D0C81C70472C
:103A300010B500B9012000F025FB002010BD10B525
:103A400000F046FB002010BD7FB50D4604464169DD
:103A5000B0F9080081B1A16971B1FFF7E3FFD4E9C2
:103A600005128DE80700D4E900102B46226900F00A
:103A70004EFC039004B070BDFFF7D4FF03A9CDE95D
:103A80000001208A2B4682B2D4E9001000F012FC1B
:103A9000012801D00020EDE70398EBE72DE9F04184
:103AA000184C0F460546E6682068001D00F020FA15
:103AB00038B9206890F82C10012088402169814392
:103AC0002161681C07D137B12168BDE8F0410E487B
:103AD000091D00F052BA20683544B542456021689E
:103AE00005D2A06BBDE8F041091D00F02EBA606B55
:103AF000091D00F02AFAA06A854200D2A562BDE83D
:103B0000F0810000200000200C0500202DE9F0418C
:103B1000054600F03FFA2E4CA068401CA0602068CB
:103B20002C4F10B1606940B32DE02560A0680128DA
:103B300029D1002606EB860007EB800000F0F7F99C
:103B4000761C072EF6D323488C3000F0F0F921487C
:103B5000A03000F0ECF91F48B43000F0E8F91D483F
:103B6000C83000F0E4F91B48DC3000F0E0F91948F7
:103B70008C3060631430A06305E02068E96AC06A95
:103B8000884200D82560606A401C6062E96A0120B2
:103B9000226988401043206101EB810007EB80001F
:103BA000291D00F0EAF900F015FA606900280CD030
:103BB0002068E96AC06A884207D207494FF08050FE
:103BC0000860BFF34F8FBFF36F8FBDE8F081000037
:103BD000200000203004002004ED00E010B5044671
:103BE00090F8510058B101280CD002280FD0502075
:103BF00080F31188BFF34F8FBFF36F8FFEE7206B09
:103C000000F0FCF92046BDE8104000F0F7B910BD07
:103C100010484FF47051420706D0C01D0D4920F0E6
:103C20000700411AC1F570510B4A00230144C2E953
:103C300000030839183A21F0070111604B600B604E
:103C40000B1AC0E9001393604FF0004053605061BD
:103C5000704700002005002074000020144E154C11
:103C6000A6F1C8074FF08058DFF84C9012E000BF73
:103C700000F090F9F068C568281D00F039F9A068D7
:103C8000401EA0606068401E606000F0A3F92846F6
:103C9000FFF7A4FF60680028EAD138680128F9D945
:103CA000C9F80080BFF34F8FBFF36F8FF2E70000BA
:103CB000F80400202000002004ED00E02DE9F0478A
:103CC0009A46DDE9098481466FF00303206B03EB1C
:103CD00082021044089E20F00707780707D0502082
:103CE00080F31188BFF34F8FBFF36F8FFEE700257E
:103CF00061B1002023180A5C83F834200A5C12B1F9
:103D0000401C1028F6D384F8435001E084F8345066
:103D1000072E00D30626E662C4E91165201D00F0D7
:103D200011F904F1180000F00DF92461C6F1070043
:103D30006462A061E56484F85050524649463846B2
:103D400000F0C0F82060B8F1000F01D0C8F80040C2
:103D5000BDE8F08730B5114900E011460A6882429B
:103D6000FBD34B685C18844203D140681844486018
:103D7000084643681C18944209D1084C183C246832
:103D8000A24209D052681A4442600A68126802606E
:103D9000814200D0086030BD0460F9E77400002063
:103DA0000648416B096829B1416BC968C96849680F
:103DB000816270474FF0FF31FAE7000020000020D9
:103DC00008484068401C4FF0500080F3118804D030
:103DD000BFF34F8FBFF36F8FFEE7BFF34F8FBFF37C
:103DE0006F8FFEE77C0000202DE9F041054600279B
:103DF00000F0A4F9324E306808B9FFF709FF706986
:103E000005424ED1C5B3083568070ED005F007004E
:103E1000C0F108000544680707D0502080F31188DE
:103E2000BFF34F8FBFF36F8FFEE72DB370688542EE
:103E300037D82348183001460C6801E020460C466C
:103E40006168A94202D221680029F7D131688C4209
:103E500027D007682168016060680837411B102976
:103E60000FD96019420708D0502080F31188BFF3A2
:103E70004F8FBFF36F8FFEE713E041606560FFF780
:103E800069FF61687068401A7060B268904200D241
:103E9000B060706901430020C4E90001F068401C73
:103EA000F06000F0C5FA780707D0502080F3118841
:103EB000BFF34F8FBFF36F8FFEE73846BDE8F08149
:103EC0005C00002010B5031F4FF080741C601B1FA6
:103ED00021F001011960191F044B0B6014390A60AD
:103EE000091F6FF0020244380A6010BDC13D00088E
:103EF000D0E9013201699A60D0E901235A604A6829
:103F0000824201D182684A60002202610868401E34
:103F10000860086870470000034B036003F1540019
:103F20000860802010607047B0000020704700F1EA
:103F300008014FF0FF32C0E90112C16001610021A8
:103F40000160704700210161704730B50B685A1C51
:103F500002D000F1080202E0026904E0224654683F
:103F600025689D42FAD953684B6099608A60516018
:103F700008610168491C016030BD42684A6093686D
:103F80008B6093685960916008610168491C016009
:103F900070470000502080F31188BFF34F8FBFF3AC
:103FA0006F8F0A494868401C486001280CD10848B6
:103FB000006810F0FF0F07D0502080F31188BFF386
:103FC0004F8FBFF36F8FFEE7704700007C0000202B
:103FD00004ED00E00849486828B1401E486001D15E
:103FE00080F311887047502080F31188BFF34F8F02
:103FF000BFF36F8FFEE700007C00002070B5002843
:104000002AD0164DA0F1080460686969084207D1FA
:10401000502080F31188BFF34F8FBFF36F8FFEE7FF
:1040200022683AB1502080F31188BFF34F8FBFF35D
:104030006F8FFEE78843606000F080F86068696811
:10404000084468602046FFF785FE2869401C286107
:10405000BDE8704000F0ECB970BD00005C000020CD
:104060004FF0E02000210161816105494FF47A722F
:104070000968B1FBF2F1491E4161072101617047F6
:104080001C00002010B5020014D00F48006B38B19E
:10409000502080F31188BFF34F8FBFF36F8FFEE77F
:1040A00000F04CF800211046FFF7F8FC00F0C0F9D2
:1040B000002807D105494FF080500860BFF34F8FAB
:1040C000BFF36F8F10BD00002000002004ED00E062
:1040D00010B586B00024039405AA04A903A804948B
:1040E000FFF71AFFDDE903010094CDE90110002379
:1040F0000EA11048059A00F00AF90F490028C8627D
:1041000011D0502080F31188BFF34F8FBFF36F8F12
:104110004FF0FF30886201204861CC6006B0BDE8F6
:10412000104000F04DB806B010BD000049444C45A9
:10413000000000005D3C0008200000200248016BE8
:10414000491C0163704700002000002010B51A4C84
:10415000206B10B10120E06110BD0020E0612068FB
:1041600021680068096B884204D8216820683431CE
:10417000FFF7DCFE20691149B0FA80F0C0F11F00A2
:1041800000EB800051F820206AB101EB800000F1C3
:104190000802416849684160914201D14968416023
:1041A000C868206010BD502080F31188BFF34F8F86
:1041B000BFF36F8FFEE700002000002030040020D6
:1041C0001CB537480168374A914207D1502080F327
:1041D0001188BFF34F8FBFF36F8FFEE7006831493F
:1041E000491E884207D1502080F31188BFF34F8FBA
:1041F000BFF36F8FFEE72C4908780190FF2008700D
:1042000008788DF800009DF800009DF8002000F06F
:10421000F000904207D0502080F31188BFF34F8FF9
:10422000BFF36F8FFEE79DF80000204C00F05000B8
:1042300020700720A06005E09DF8002052008DF856
:104240000020401E9DF800201206F5D4A06003282F
:1042500007D0502080F31188BFF34F8FBFF36F8FCB
:10426000FEE74FF44070A060019808700C482030C1
:10427000016841F470010160016841F07041016022
:10428000FFF7EEFE00206060FBF7B4FF084801680E
:1042900041F040410160FBF799FF00201CBD000088
:1042A00000ED00E071C20F4100E400E07C0000205E
:1042B00034EF00E02DE9FF5F8346DDE90E87994684
:1042C00016468A469000FFF78FFD05001CD054204B
:1042D000FFF78AFD040014D00020256384F8510004
:1042E000CDE90240CDE900874B463246514658465B
:1042F000FFF7E4FC2046FFF709FC012004B0BDE80D
:10430000F09F2846FFF77AFE4FF0FF30F6E7F0B552
:1043100085B0DDE90B640A9DA6B1DCB15427009796
:104320002663022684F85160002604AFCDE90246D8
:10433000CDE90057FFF7C2FC2046FFF7E7FB0498E2
:1043400005B0F0BD502080F31188BFF34F8FBFF34D
:104350006F8FFEE7502080F31188BFF34F8FBFF3BC
:104360006F8FFEE72DE9F0412F4C0026206B28B11E
:10437000A069401CA0613046BDE8F081E5686D1C75
:10438000E56013D1606B006838B1502080F311886C
:10439000BFF34F8FBFF36F8FFEE7606BA16B61635D
:1043A000A063206A401C2062FFF7FAFCA06ADFF8D5
:1043B0007C80854209D3606B0068A0B1606BC068E7
:1043C000C7687868854211D2A0622068C06A00EB95
:1043D000800158F82100012800D90126E069002851
:1043E000C9D00126C7E74FF0FF30EDE7381DFFF7D2
:1043F0007FFDB86A18B107F11800FFF779FDF96A77
:104400000120226988401043206101EB810108EB03
:104410008100391DFFF7B1FDF86A2168C96A884239
:10442000C9D30126C7E70000200000203004002087
:104430002DE9F0472C4D00242746286B38B1FFF7B3
:10444000A9FD286B401E2863286B40B146E0502030
:1044500080F31188BFF34F8FBFF36F8FFEE7A9681A
:10446000224E0120D1B3A6F1B40980463068E8B1EC
:10447000F068C46804F11800FFF73AFD201DFFF74B
:1044800037FDE06A2A6908FA00F11143296100EB5F
:10449000800109EB8100211DFFF76FFDE06A2968AB
:1044A000C96A8842E2D3C5F81C80DFE70CB1FFF788
:1044B00077FCAC6944B14646FFF754FF00B1EE61AA
:1044C000641EF9D10020A861E86938B108490127C4
:1044D00038070860BFF34F8FBFF36F8FFFF77AFD88
:1044E0003846BDE8F087000020000020E4040020EA
:1044F00004ED00E038460008392E000800000000F6
:10450000000000008000000000000000000000002B
:10451000144600084D2E0008FDFF000000000000BA
:10452000800000000000000000000000204600089D
:104530005F2E0008FDFF000000000000800000006A
:1045400000000000000000002C460008632E000858
:10455000FDFF0000000000008000000000000000DF
:104560000000000000000000000000000102030441
:104570000607080900000000010203040000000013
:1045800004000000080000000C0000000040404053
:104590004040404040404141414141404040404016
:1045A00040404040404040404040404040050202C2
:1045B0000202020202020202020202020220202081
:1045C00020202020202020020202020202029090DD
:1045D00090909090101010101010101010101010DB
:1045E000101010101010101002020202020288882F
:1045F000888888880808080808080808080808083B
:104600000808080808080808020202024000000022
:104610008D4500086D795461736B303200000000E5
:104620006D795461736B3033000000006D79546113
:10463000736B30340000000064656661756C7454FF
:1046400061736B006446000800000020B0000000A9
:104650004C35000814470008B00000201846000040
:104660005C350008000000000000000000000000B1
:104670000000000001000000100000000000000029
:104680000024F40000000000000000000000000012
:10469000000000000000000000000000000000001A
:1046A000000000000000000000000000000000000A
:1046B00000000000000000000000000000000000FA
:1046C00000000000000000000000000000000000EA
:1046D00000000000000000000000000000000000DA
:1046E00000000000AAAAAAAA000000000000000022
:1046F00000000000000000000000000000000000BA
:1047000000000000000000000000000000000000A9
:0447100000000000A5
:040000050800019955
:00000001FF
