:020000040800F2
:10000000A84700206D02000889390008AF2E0008BB
:100010009D380008410900088145000800000000E3
:10002000000000000000000000000000AD0100081A
:10003000991100080000000009020008E13E0008D4
:10004000870200088702000887020008870200086C
:10005000870200088702000887020008870200085C
:10006000870200088702000887020008870200084C
:10007000870200088702000887020008870200083C
:1000800087020008870200088702000800000000BD
:1000900000000000000000000000000087020008CF
:1000A000870200082D400008870200088702000828
:1000B00087020008870200088702000887020008FC
:1000C00087020008870200088702000887020008EC
:1000D000870200087545000887020008000000003C
:1000E000870200088702000887020008000000005D
:1000F000000000000000000000000000870200086F
:10010000000000008702000887020008870200083C
:1001100000000000000000000000000000000000DF
:10012000870200088702000887020008870200088B
:10013000870200080000000000000000000000002E
:10014000000000000000000000000000870200081E
:10015000870200088702000887020008870200085B
:10016000870200088702000800000000000000006D
:10017000000000000000000000000000000000007F
:1001800000000000870200080000000000000000DE
:100190008702000887020008DFF80CD000F07AF927
:1001A00000480047854D0008A84700202C4B1968DF
:1001B0000868B0E8F04F80F30988BFF36F8F4FF005
:1001C000000080F3118870470000000008480068B4
:1001D000006880F308884FF0000080F3148862B64E
:1001E00061B6BFF34F8FBFF36F8F00DF00BF00BF5B
:1001F00008ED00E0DFF80C00016841F470010160D7
:10020000704700BF88ED00E0EFF30980BFF36F8F08
:10021000134B1A681EF0100F08BF20ED108A20E95A
:10022000F04F106009B44FF0500080F31188BFF315
:100230004F8FBFF36F8F05F05BF94FF0000080F335
:10024000118809BC19680868B0E8F04F1EF0100F5B
:1002500008BFB0EC108A80F30988BFF36F8F704736
:1002600020000020EFF3058070470000064880471B
:1002700006480047FEE7FEE7FEE7FEE7FEE7FEE78B
:10028000FEE7FEE7FEE7FEE79D3F00089901000854
:100290002DE9F05F0546002092469B4688460646BB
:1002A000814640241BE0284641464746224600F04E
:1002B000A9F853465A46C01A914110D31146184620
:1002C000224600F090F82D1A67EB01084F462246AF
:1002D0000120002100F087F817EB00094E41201E95
:1002E000A4F10104DFDC484631462A464346BDE816
:1002F000F09FA0F14101192900D82030704740EA51
:1003000001039B0703D009E008C9121F08C0042A93
:10031000FAD203E011F8013B00F8013B521EF9D27A
:100320007047D2B201E000F8012B491EFBD27047A2
:100330000022F6E710B513460A4604461946FFF7B1
:10034000F0FF204610BD10B5044604E00B7800F81D
:10035000013B03B1491C521EF8D2204610BD421C7D
:1003600010F8011B0029FBD1801A704710B500223C
:1003700000E0521C835C8C5CA34201D1002BF8D1BD
:10038000D8B2E1B2401A10BD70B50F4D00B928685F
:10039000002412E00A4602E09E4203D0521C137869
:1003A000002BF9D1DAB2224305D02BB124B10021C0
:1003B00000F8011B04E00446401C0678002EE9D139
:1003C0002860204670BD0000A800002070B50646D9
:1003D00004F030F9046805460A220021304600F096
:1003E00021F82C6070BD202A04DB203A00FA02F1CB
:1003F000002070479140C2F1200320FA03F3194313
:1004000090407047202A04DB203A21FA02F00021B4
:10041000704721FA02F3D040C2F120029140084314
:10042000194670472DE9F04791460F46804604462D
:10043000002614F8015B2DB100F03EF80068405D25
:10044000C007F6D12B2D02D02D2D18D0641E4A46A0
:100450003946204600F034F827B13968A14201D16D
:10046000C7F8008071054FF002040BD54042002808
:1004700003DD04F0DFF80460A007BDE8F08746F470
:100480008066E4E70028F8DA04F0D4F804606FF03E
:100490000040F2E7064C074D06E0E06840F001033B
:1004A00094E8070098471034AC42F6D3FFF778FE83
:1004B000E8590008085A000800487047B459000875
:1004C0002DE9F05F82460078002715468B460AF139
:1004D0000104B946302801D09DB113E014F8010B96
:1004E0000127782803D0582801D045B10AE00DB182
:1004F000102D07D10027102514F8010B02E0082564
:1005000000E00A250026B0460EE005FB080005FBCA
:1005100006F1012701EB10461FFA80F8B6F5803F7F
:1005200000D3B94614F8010B294600F018F800284A
:10053000EBDABBF1000F05D00FB1641E00E05446AA
:10054000CBF80040B9F1000F06D004F073F8022197
:100550000160C81EBDE8F09F48EA0640FAE73A2865
:1005600000D2303820F02002412A01D3A2F1370016
:10057000884201D34FF0FF3070470000F0B587B0DC
:1005800003F020FD02287DD003F01CFD032879D064
:100590005FF0000403F010FD404D014605F11C031F
:1005A000224693EC030A002000F042F90024029452
:1005B000039404940594D5ED020A9FED390A60EE88
:1005C000800AFDEEE00A10EE900AD5ED010A00B2B5
:1005D00060EE800AFDEEE00A10EE901A09B2CDE955
:1005E0000010D5ED000A20EE800AD5ED050ABDEE1B
:1005F000C00A10EE100A9FED2B0A03B260EE800ACB
:10060000FDEEE00A10EE900AD5ED040A02B260EEAB
:10061000800AFDEEE00A10EE900AD5ED030A01B261
:1006200020EE800ABDEEC00A10EE100A00B200F003
:1006300095F81D480178491CC9B20170022918D3E8
:100640000470032003F02CF90746022003F028F978
:100650000646012003F024F90546002003F020F9A6
:100660000094019402943B4632462946039400F0DC
:1006700027F80E48017800290BD004704FF4C87396
:10068000642200E007E04FF496710420009400F02B
:1006900021F907B0F0BD01247CE700008C41002067
:1006A0003333834100008045A400002062430020D2
:1006B0000A4601460A23014802F0A8BBFC030020B9
:1006C0003FB42548AA211022017041700621817093
:1006D0009DF8011001719DF8001041719DF8051001
:1006E00081719DF80410C1719DF8091001729DF887
:1006F000081041729DF80D1081729DF80C10C172A6
:100700009DF8191001739DF8181041739DF81D1084
:1007100081739DF81C10C1739DF8211001749DF820
:10072000201041749DF8251081749DF82410C17427
:100730001421C2700022084B10461C5C401C22444D
:10074000C0B2D2B28842F8D35A5404B0024830BC86
:10075000491CFFF7ADBF00006F4300202DE9F807EB
:1007600008ACAA2594E8C013304C257065700225AA
:10077000A570ADF800009DF8010020719DF8000003
:100780006071ADF800109DF80100A0719DF80000A7
:10079000E071ADF800209DF8010020729DF8000086
:1007A0006072ADF800309DF80100A0729DF8000065
:1007B000E072ADF800609DF8010020739DF8000024
:1007C0006073ADF800709DF80100A0739DF8000003
:1007D000E073ADF800809DF8010020749DF80000E2
:1007E0006074ADF800909DF80100A0749DF80000C1
:1007F000E074ADF800C09DF8010020759DF8000080
:10080000607512201621E0700022104623461C5C01
:10081000401C2244C0B2D2B28842F8D35A54BDE838
:10082000F8070248491CFFF743BF00006F43002050
:10083000DFED271A18B4254B20EE210AAA241C70DC
:100840005C70BDEEC00A01249C7010EE104A20EED0
:10085000A10AADF800409DF801401C71BDEEC00A30
:100860009DF800405C7110EE104A21EE210AADF8AF
:1008700000409DF801409C71BDEEC00A9DF800400B
:10088000DC7110EE104AADF800409DF801401C727A
:100890009DF800405C72040E9C72040CDC72040A29
:1008A0001C7358739973DA730C201021D8700022CE
:1008B00010461C5C401C2244C0B2D2B28842F8D31D
:1008C0005A5418BC0148491CFFF7F2BE6F43002080
:1008D0000000C8423FB4194AAA211170517000218A
:1008E000917010719DF8050050719DF80400907191
:1008F0009DF80900D0719DF8080010729DF80D1048
:1009000051729DF80C1091729DF81910D1729DF8DA
:100910001810117309200D21D07000231846145CA3
:10092000401C2344C0B2DBB28842F8D3535404B015
:10093000024830BC491CFFF7BBBE00006F430020DB
:10094000FEE7000010B510210748FFF7F1FC07484B
:1009500000214180818001700122411CBDE81040CE
:10096000034802F02DBA0000C04100208E00002094
:10097000FC0300202DE9F043A1B001467F2201A82D
:10098000FFF7E1FC00208DF8830001AC04E000BF1C
:10099000FFF7AFFC04F8010B20780028F8D18CA1F8
:1009A00001A8FFF7F1FC04001ED08BA1FFF7DEFCCD
:1009B000E8B18BA12046FFF7D9FC00283CD08AA1E2
:1009C0002046FFF7D3FC002854D088A12046FFF72B
:1009D000CDFC00286BD02046FFF7C1FC002803D0D7
:1009E000214684A003F0F2FD21B0BDE8F0838DA084
:1009F00003F0ECFD03F0ECFA014691A003F0E6FDF4
:100A000003F0E0FA014691A003F0E0FD03F0CEFA16
:100A100001280FD090A192A003F0D8FD944800685F
:100A2000016C0091C36B826B416B92A003F0CEFD11
:100A300096A0BFE09BA1EEE765A10020FFF7A4FC14
:100A400004000BD099A1FFF791FC48B199A1204671
:100A5000FFF78CFC48B1214698A0C3E7A2A0A9E00B
:100A6000012003F0CBFAA7A0A4E0002003F0C6FA0F
:100A7000B0A09FE056A10020FFF786FC04000CD038
:100A8000B5A1FFF773FC50B12046FFF79FFC044669
:100A9000062806D30146B1A0A4E7B8A08AE0BDA00D
:100AA00088E0E0B202F04CFD2146C7A09AE748A1D9
:100AB0000020FFF769FC040019D0C9A1FFF756FC1C
:100AC000B8B1C9A12046FFF751FCB0B1C8A120467A
:100AD000FFF74CFC4FF47A7898B12046FFF776FC8C
:100AE000461E0546042E57D32946C2A07AE7C9A060
:100AF00060E002F043FFD2A05CE002F0EDFED6A081
:100B000058E033A10020FFF73FFC064630A100204B
:100B1000FFF73AFC05462EA10020FFF735FC814681
:100B20002BA10020FFF730FC04462EB325B3B9F10A
:100B3000000F21D004B33046FFF748FC0746284693
:100B4000FFF744FC06464846FFF740FC05462046B2
:100B5000FFF73CFC414604468F420BD2002E09DBD6
:100B60008E4207DA002D05DB8D4203DA002C01DB13
:100B7000444503DBBCA01DE0C2A01BE0A3B2AAB2A7
:100B8000B1B2B8B202F0C6FE2B4632463946C7A013
:100B9000009403F01BFD27E70DA10020FFF7F4FBF5
:100BA00038B1FFF713FC0446404506D30146AEA01A
:100BB00018E7C7A003F00AFD16E7A1B2F0B202F0F1
:100BC000BFFE22462946C9A003F000FD0CE7000045
:100BD00020090D0A00000000696E666F0000000029
:100BE0006D6F6465000000006C6564006D6F746F6C
:100BF00072000000556E6B6E6F776E3A202725737A
:100C0000272E205472793A204D4F44452C204C45D4
:100C1000442C204D4F544F522C20494E464F0D0A24
:100C2000000000003D3D3D20447261676F6E466CE0
:100C30007920496E666F203D3D3D0D0A00000000A1
:100C40005469636B3A20256C750D0A005374617406
:100C5000653A2025640D0A004155544F00000000FC
:100C6000436F6E74726F6C3A2025730D0A0000009A
:100C7000B40300204D6F746F723A20256420256400
:100C80002025642025640D0A000000003D3D3D3D07
:100C90003D3D3D3D3D3D3D3D3D3D3D3D3D3D3D3D84
:100CA0003D0D0A004D414E55414C00006D616E7581
:100CB000616C00006175746F000000004D4F444589
:100CC0003A20696E76616C696420272573272C2091
:100CD000757365204155544F206F72204D414E551C
:100CE000414C0D0A0000000055736167653A204DC4
:100CF0004F4445203C4155544F7C4D414E55414C4D
:100D00003E0D0A00436F6E74726F6C206D6F6465E8
:100D10003A204D414E55414C20286D6F746F722022
:100D200076616C7565732070726573657276656443
:100D3000290D0A00436F6E74726F6C206D6F6465CD
:100D40003A204155544F202850494420636F6E7417
:100D5000726F6C290D0A00003F0000004C45443AB8
:100D600020696E76616C6964206D6F64652025640E
:100D70002028302D35290D0A0000000055736167C9
:100D8000653A204C4544203C302D357C3F3E0D0AD1
:100D9000000000004C4544206D6F6465207175654E
:100DA0007279206E6F7420617661696C61626C6526
:100DB0002028757365206B6E6F776E2076616C7579
:100DC00065290D0A000000004C4544206D6F6465E4
:100DD0002073657420746F2025640D0A00000000E4
:100DE00073746F700000000069646C65000000009F
:100DF000616C6C004D4F544F523A20696E76616CB5
:100E00006964206D6F746F722025642028312D3441
:100E1000290D0A0055736167653A204D4F544F52B2
:100E2000203C312D347C414C4C7C53544F507C49F8
:100E3000444C453E205B647574795D0D0A000000EA
:100E40004D4F544F523A20616C6C2073746F707028
:100E500065640D0A000000004D4F544F523A20695E
:100E6000646C650D0A0000004D4F544F523A2064E7
:100E7000757479206D75737420626520302D393951
:100E8000390D0A0055736167653A204D4F544F5232
:100E900020414C4C203C64313E203C64323E203C9E
:100EA00064333E203C64343E0D0A00004D4F544FE5
:100EB000523A204D313D2564204D323D2564204D70
:100EC000333D2564204D343D25640D0A00000000AB
:100ED00055736167653A204D4F544F52203C312D78
:100EE000343E203C647574793E0D0A004D4F544FDA
:100EF000522025642073657420746F2025640D0AC8
:100F00000000000070B50026154D164C16E0207844
:100F100020B1291811F8012C0D2A06D02E5410B139
:100F20000F48FFF727FD267008E001F8016CF7E78E
:100F300021787F2902D26854491C21706188A088D9
:100F400081420BD00649A0888039085CA188491CE1
:100F500001F07F01A1800A28EAD1D8E770BD000026
:100F6000504200208E000020064910B54A888B8828
:100F7000521C02F07F029A4203D0034B4C88185552
:100F80004A8010BD8E000020D0410020FFF7BAFF3C
:100F9000012003F01FFFF9E7DFED1D2A9FED1D3A49
:100FA000DFED1D3A00B5B0EE622AF0EE431AB2EE64
:100FB000041AF0EE630AB7EE080A184802F030FD92
:100FC0001648B0EE622AF0EE431AB2EE041AF0EEC2
:100FD000630AB7EE080A203002F022FD0F48B0EE97
:100FE000622AF0EE431AB1EE041ADFED0D0AB0EEFC
:100FF000080A403002F014FD0B489FED0A0A80ED0C
:10100000030A80ED020A80ED010A80ED000A00BDAE
:101010000000C8430000C8420AD7A33CD0420020C9
:101020000AD7233C000000009400002000B52DEDFD
:10103000028B83B09FED528A02F0B8FF01280CD0DA
:10104000684602F055F902F0BDFF022809D002F00F
:10105000B9FF032805D002F091FC03B0BDEC028B70
:1010600000BD484BDDED000AB0EE481A93ED000AD2
:10107000454802F08BFC4448B0EE403ADDED010AF1
:10108000B0EE481A93ED010A203002F07FFC3E4892
:10109000F0EE402ADDED020AB0EE481A93ED020AA6
:1010A000403002F073FCD3ED030AB0EE402A38481A
:1010B00070EE833A30EEC33A33EEE20A70EE421A33
:1010C00033EE220AF5EEC01A30EE421A33EEA20ACF
:1010D00070EE020A33EE620ADFED2E2A30EE020ACB
:1010E0009FED2A2AF1EE10FA02D2F0EE421A05E044
:1010F00011EE901A814201DDF0EE621AB5EEC01ACF
:10110000F1EE10FA02D2B0EE421A05E011EE101A1A
:10111000814201DDB0EE621AF5EEC00AF1EE10FA7E
:1011200002D2F0EE420A05E010EE901A814201DD93
:10113000F0EE620AB5EEC00AF1EE10FA02D2B0EE9D
:10114000420A05E010EE101A814201DDB0EE620A9B
:10115000BCEEC00A10EE100ABCEEE00A83B210EE3C
:10116000100ABCEEC10A82B210EE100ABCEEE10A0F
:1011700081B210EE100A80B202F0CCFB6DE70000E5
:101180006F12833A94000020D0420020000000003B
:1011900000C0794400C07944704772B6FEE7000091
:1011A0002DE9F047002688B03546344637460DF124
:1011B0000C084FF064094FF00E0ACDE9008A0123B4
:1011C0003B22D2211F48CDF8089000F071FABDF8FB
:1011D000140040BA06FA80F6BDF8160040BA05FAC7
:1011E00080F5BDF8180040BA04FA80F4022000F03F
:1011F0008DF87F1CC82FE0DB00EE106A1448F8EE73
:10120000C00A9FED110A80EE801ADFED100AC1EED0
:10121000201A01EE105AC0ED001AF8EEC11A81EE44
:10122000801AC1EE201A01EE104AC0ED011AF8EE44
:10123000C11A81EE801A81EE200A80ED020A08B000
:10124000BDE8F087080300200000484333338341A2
:10125000B44100202DE9F0410446876D00F05EF9AD
:10126000064694F835000025022806D080206065E7
:1012700084F834500120BDE8F0812068016821F035
:10128000160101602068416921F080014161206CF4
:1012900008B9A06C20B12068016821F00801016044
:1012A0002068016821F0010101600CE000F036F9CE
:1012B000801B052807D920206065032084F83500AD
:1012C00084F83450D7E720680068C007EED194F85E
:1012D0005C103F208840B860012084F8350084F815
:1012E00034500020C7E790F83510022903D0802140
:1012F000416501207047052180F8351000680168BC
:1013000021F00101016000207047000070B5044623
:1013100000F004F90546601C02D00448007804443B
:1013200000F0FCF8401BA042FAD370BD1000002072
:101330002DE9F84FDFF8B8A10022012403254FF072
:101340000F090AF1040BAAF1040E00BF0B6804FA9E
:1013500002F63340B34273D10F7907F00307012F30
:1013600001D0022F16D187684FEA420805FA08FC1F
:1013700027EA0C07D1F80CC00CFA08FC4CEA070C61
:10138000C0F808C04768B7430E79C6F30016964008
:101390003E4346600E79F643B6070DD0C768560047
:1013A00005FA06FC27EA0C07D1F808C00CFA06FC7F
:1013B0004CEA070CC0F80CC00E7906F00306022EAA
:1013C00010D1D60800EB8608D8F8206057074FEAFE
:1013D000D76C09FA0CF7BE430F6907FA0CF73743CD
:1013E000C8F8207006684FEA420C05FA0CF7BE43B5
:1013F0000F7907F0030707FA0CF7374307604E68C9
:1014000016F4403F6DD03B4E376847F48047376055
:10141000366822F0030706F480460096364E07EB46
:10142000060CDCF8086897073F0F09FA07F826EA68
:101430000806DFF8C880404503D14FF000081EE0E1
:101440004FE0DFF8BC80404502D14FF0010816E0C4
:10145000DFF8B080404502D14FF002080FE0DFF81E
:10146000A880404502D14FF0030808E0DFF89C80D7
:10147000404502D14FF0040801E04FF0070808FA98
:1014800007F848EA0608CCF80888DAF800605746FA
:10149000D1F804C09E435FEACC2C00D51E433E60C9
:1014A000DBF800605F46D1F804C09E435FEA8C2CF5
:1014B00000D51E433E60DEF800607746D1F804C0D8
:1014C0009E435FEA8C3C00D51E433E60084F083FB8
:1014D0003E68D1F804C09E435FEACC3C00D51E4371
:1014E0003E60521C102AFFF431AFBDE8F88F0000B7
:1014F000083C0140443802400030014000000240F6
:101500000004024000080240000C024000100240AB
:101510000AB1816170470904FBE700000148806857
:10152000704700001000002070B5040025D094F82A
:101530003D00002520B984F83C50204600F052FAC6
:10154000242084F83D002068016821F00101016039
:101550002068016841F4004101602068016821F4BD
:101560000041016000F0F0FB4D4A6168914201D8F2
:101570004C4900E04C49884201D2012070BD4B49E2
:101580002368B0FBF1F15E6826F03F060E435E6013
:101590006368934206D94FF4967359434FF47A73B4
:1015A000B1FBF3F12368491C1E6A26F03F06314364
:1015B00019626168914210D84900401EB0FBF1F2F7
:1015C000521CC2F30B02042A01D2042022E0B0FB19
:1015D000F1F0401CC0F30B001CE0A268F2B301EB79
:1015E000C10303EB0116431EB3FBF6F35B1C43F48C
:1015F00080431B0549D092B301EBC10202EB0111FC
:10160000401EB0FBF1F0401CC0F30B0040F48040E2
:1016100040F400402168CA694CF6FF739A431043B6
:10162000C861D4E9071001432068026822F0C002B3
:1016300011430160D4E9030101432068826848F244
:10164000FF339A4311438160D4E9050108432168BF
:10165000CA6822F0FF021043C86001E00EE016E005
:101660002068016841F0010101602564202084F8B0
:101670003D00256384F83E50002070BD01EB41061B
:10168000431EB3FBF6F35B1CB3E70120C2E701EB9B
:101690004101401EB0FBF1F0401CC0F30B00B7E766
:1016A000A086010080841E0000093D0040420F001A
:1016B0002DE9FF4F83B09A46DDE911879346044632
:1016C000DDF84090FFF72AFF054694F83D002028FA
:1016D00070D11923012274492046009501F0FEFCC7
:1016E0000028F5D194F83C00012863D0012084F84B
:1016F0003C0020680168C90703D1016841F001017D
:1017000001602068016821F400610160222084F8F2
:101710003D00402084F83E0000262664C4F8249052
:10172000A4F82A80608D20856048E062CDE90075CC
:1017300053465A462046049901F0D2FB002879D13D
:10174000208DD0B1012821D00228206824D0416901
:1017500080690090208D032866D801282BD0544939
:1017600002283B464FF00002009557D0884620469D
:1017700001F0B4FC00285DD13AE02068416981693C
:101780000091016841F4007101607DE0206801680A
:1017900021F480610160F0E7016821F4806101605B
:1017A0002068016841F40061016020684169806936
:1017B000009069E075E02A463946204601F034FD84
:1017C00088BB54E02068016841F400710160206822
:1017D0000069616A0870606A401C6062218D491E60
:1017E0002185618D491E618521680969017042E08A
:1017F0002068016821F48061016020680069616AE5
:101800000870606A401C6062208D401E2085608DDB
:10181000401E60853B46002241460095204601F06F
:101820005DFC00B9CEE705E02A463946204601F0C6
:10183000FBFC18B1012007B0BDE8F08F20680069FB
:10184000616A0870606A401C6062208D401E81B22F
:101850002185608D401E608520684269D243520711
:1018600012D4032903D1016821F48061016020684A
:101870000069616A0870606A401C6062208D401EC9
:101880002085608D401E6085208D00287FF462AF2A
:10189000202084F83D0084F83E6084F83C600020FD
:1018A000C9E70220C7E70000020010000000FFFFA8
:1018B000040001002DE9FF4F83B09A46DDE911973E
:1018C00093460446DDF84080FFF728FE054694F86D
:1018D0003D0020287FD11923012240492046009550
:1018E00001F0FCFB002876D194F83C00012872D06E
:1018F000012084F83C0020680168C90703D1016811
:1019000041F0010101602068016821F4006101607B
:10191000212084F83D00402084F83E000026266403
:10192000C4F82480A4F82A90608D20852C48E062B9
:10193000CDE9007553465A462046049901F04EFB06
:1019400070B930E02A463946204601F0A5FC58B16E
:10195000206C042804D12068016841F40071016002
:10196000012007B0BDE8F08F606A21680078086147
:10197000606A401C6062218D491E89B22185628D9A
:10198000521E628522685369DB435B070BD469B141
:1019900000781061606A401C6062208D401E2085C6
:1019A000608D401E6085208D0028CBD12A463946A7
:1019B000204601F067FB0028CAD154F83D0B0168AE
:1019C00041F400710160202004F81E09E677667773
:1019D0000020C6E7FFE70220C3E700000200100076
:1019E0000000FFFF10B586B0044614216846FEF7DC
:1019F0009FFC13492068884220D1124800210268C8
:101A000042F002020260006800F002000590C0206F
:101A100000901220CDE901010320039004200490DE
:101A200069460948FFF784FC06481030016841F414
:101A300000110160006800F40010059006B010BDB0
:101A400000540040303802400004024002488168DF
:101A50000278114481607047100000200B4810B5D7
:101A6000016841F400710160016841F48061016026
:101A7000016841F480710160032000F099F80F20A3
:101A800000F006F800F04AF8002010BD003C0240CB
:101A900030B505461C4887B00024016841F4003188
:101AA0000160006806A900F40030009001A800F071
:101AB0002BF900F059F91549154AB0FBF1F1154819
:101AC000491E026040F2E732C0E90324C0E9011474
:101AD000846100F00DFD040012D10E4800F04AFDB3
:101AE00004000DD1192000F035F8102D07D2002286
:101AF0002946192000F03CF80748056000E0012461
:101B000007B0204630BD00004438024040420F007C
:101B10000044014044040020140000200C4882B01E
:101B2000016841F480410160006800F48040009049
:101B30000748001F016841F08051016000680022E1
:101B400000F0805000900F21901E02B000F010B8FD
:101B500044380240002809DB00F01F0201219140B7
:101B60004009800000F1E020C0F80011704700003B
:101B7000F0B40E4B1B680C46C3F30223C3F10705F8
:101B8000042D00D90425191D072901D2002300E0E6
:101B9000DB1E012606FA05F1491E214099409E40B0
:101BA000761E16403143F0BC02F033BD0CED00E070
:101BB000064900F0070208684FF6FF03184040EAA4
:101BC0000220034A10430860704700000CED00E05B
:101BD0000000FA052DE9F0470E46050065D0DFF854
:101BE0001481D8F80000F7B200F00700B04207D225
:101BF00088F80070D8F8000000F00700B04254D117
:101C000028683D4C810712D5400703D5206840F471
:101C1000E05020602878000703D5206840F4604039
:101C200020602068A96820F0F00008432060287830
:101C3000C0072DD0304968680839012812D0022821
:101C400013D0032811D00968890700292DDA2168EB
:101C500021F0030101432160FFF760FC814641F25E
:101C6000883A0EE009688903EFE709688901ECE723
:101C7000FFF754FCA0EB0901514502D90320BDE850
:101C8000F0872068696800F00C00B0EB810FEFD19D
:101C9000D8F80010404601F00701B14207D907709B
:101CA000006800F00700B04201D00120E7E7287883
:101CB000400705D52068E96820F4E050084320601B
:101CC0002878000706D52068296920F4604040EA9A
:101CD000C100206000F058F82168084AC1F30311E0
:101CE000515CC8400649086006480068FFF7D0FE0E
:101CF0000020C4E7003C02400838024008590008B0
:101D00001C000020140000200F2202600C4A1368FF
:101D100003F003034360136803F0F0038360136868
:101D200003F4E053C36012684FF4E05303EAD202B5
:101D300002610448006800F0070008607047000076
:101D400008380240003C0240044805490068096820
:101D5000044AC1F38221515CC84070471C00002036
:101D60000838024018590008044805490068096805
:101D7000044AC1F34231515CC84070471C00002046
:101D80000838024018590008154810B5006810F0CE
:101D90000C02144813D01449042A0FD0082A0ED17B
:101DA0000F4C241F2268236802F03F025B0207D514
:101DB0002068C0F38810A0FB010106E0084610BDB2
:101DC0002168C1F38811A1FB00010023FEF760FA2E
:101DD0002168C1F30141491C4900B0FBF1F010BD7D
:101DE000083802400024F40040787D012DE9F84FC6
:101DF00004006ED02078DFF84C93C007A9F10405E9
:101E00004AD009F104000168C1F38101012908D019
:101E10000068C0F3810002280AD1D9F8000040020E
:101E200006D52868800337D560680028E1D033E004
:101E30006068B0F5803F10D0B0F5A02F286810D0B2
:101E400020F480302860286820F4802028606068B2
:101E5000A8B1FFF763FB06460DE0286840F4803028
:101E6000F4E740F480202860F7E700BFFFF756FB57
:101E7000801B642873D828688003F7D50CE0FFF72F
:101E80004DFB064605E000BFFFF748FB801B6428BA
:101E9000F0D828688003F7D42078DFF8AC82800778
:101EA0004FF0000A3ED5A748001D016811F00C0F45
:101EB00008D00068C0F3810002280BD1D9F80000D7
:101EC000400207D42868800716D5E068012800D1B1
:101ED00012E033E1E068B8B10120C8F80000FFF774
:101EE0001DFB064605E000BFFFF718FB801B02281C
:101EF000C0D828688007F7D52868216920F0F80045
:101F000040EAC10028600DE0C8F800A0FFF706FB1A
:101F1000064604E0FFF702FB801B02281FD8286852
:101F20008007F7D42078000722D5864F874861695B
:101F3000703771B101210160FFF7F0FA064604E045
:101F4000FFF7ECFA801B022809D838688007F7D51C
:101F50000EE0C0F800A0FFF7E1FA064605E082E0D7
:101F6000FFF7DCFA801B02287DD838688007F7D499
:101F70002078400768D5DFF8CCB100270BF13C0B87
:101F8000DBF80000C0000BD4DBF8001041F08051FA
:101F9000CBF80010DBF80000012700F08050009023
:101FA0006B4E3068C00510D4306840F480703060EB
:101FB000FFF7B4FA009005E0FFF7B0FA0099401A75
:101FC000022850D83068C005F6D55E4EA0686C3641
:101FD00001280FD00528306810D020F001003060B3
:101FE000306820F004003060A068B8B1FFF796FABE
:101FF00000900FE0306840F00100F4E740F004008A
:102000003060F7E7FFF78AFA0099411A41F2883009
:10201000814266D830688007F4D50EE0FFF77EFA7B
:10202000009007E0FFF77AFA0099411A41F28830F0
:10203000814256D830688007F4D42FB1DBF8001005
:1020400021F08051CBF80010A069C8B33D49091DAB
:102050000968C1F3810102294AD00228504607D0FD
:10206000C8F8600000E03CE0FFF758FA04463BE0A7
:102070004746C8F86000FFF751FA064605E000BF82
:10208000FFF74CFA801B02282BD828688001F7D470
:10209000D4E907010843A16A2E4A490802EB01412D
:1020A000626A41EA8211084394F82C1040EA016107
:1020B000C9F8001001203866FFF730FA044606E040
:1020C0003EE000BFFFF72AFA001B022809D8286863
:1020D0008001F7D534E000BFFFF720FA001B02288B
:1020E00002D90320BDE8F88F28688001F4D427E0E6
:1020F0000128F7D0D9F80000E26900F4800191428C
:102100001CD1226A00F03F01914217D147F6C071FD
:10211000626A0140B1EB821F10D1A26A4FF0FF3317
:1021200000F4403103EB5202B1EB024F06D194F8B8
:102130002C1000F07060B0EB016F01D00120D1E7EE
:102140000020CFE70438024000004742800E47429B
:10215000007000400000FFFF70B5040009D0606A05
:10216000002540B125616561A56294F8510040B138
:102170000CE0012070BD6068B0F5827FF4D0E561AD
:10218000F2E784F85050204600F044F8022084F82A
:1021900051002068016821F040010160A088218978
:1021A00000F4827001F404410843A18901F4006144
:1021B0000843217C01F002010843217D01F0010167
:1021C0000843218B01F400710843217F01F038019D
:1021D000084394F8201001F080010843218D01F498
:1021E0000051084321680860A069042101EA1040F9
:1021F00094F8241001F01001084321684860206819
:10220000C16921F40061C1616565012084F8510054
:10221000002070BD10B586B0044614216846FEF754
:1022200087F814492068884221D1134800210268A8
:1022300042F480420260006800F4804005900E483D
:102240001038026842F002020260006800F00200EA
:1022500005904FF4604000900220CDE90101032079
:1022600003900520049069460448FFF761F806B022
:1022700010BD000000380040403802400004024019
:102280002DE9FF4F81B01D46934604464FF00109EA
:102290000E9EFFF743F9074694F851006168012844
:1022A00006D0B1F5827F3CD1A168C9BB042838D1E2
:1022B0000298002871D0BBF1000FFBD0002DF9D09F
:1022C00094F8500001282CD04FF0010A84F850A057
:1022D00094F85100042802D0052084F851004FF0F2
:1022E0000008C4F85480C4F838B0E587A58702997F
:1022F0002163E586A586C4F84080C4F84480206840
:102300000168490603D4016841F040010160E068BA
:10231000B0F5006F606808D0F0B3012D49D081E0BE
:10232000FFE7022005B0BDE8F08F08B1012D39D1DB
:10233000206B21680088C860206B801C2063E08EC1
:10234000401EE0862EE02068816889070FD5E18E67
:1023500069B1B9F1010F0AD1216B0988C160206B05
:10236000801C2063E08E401EE0864FF0000920684C
:102370008168C9070CD0E18F51B1C068A16B08809A
:10238000A06B801CA063E08F401EE0874FF0010926
:10239000FFF7C4F8C01B01E00BE067E0B04201D3D7
:1023A000701C50D1E08E0028CDD1E08F0028CAD11A
:1023B0003EE0206B216800780873206B401C20638E
:1023C000E08E401EE0862DE02068816889070FD5E9
:1023D000E18E69B1B9F1010F0AD1216B097801735E
:1023E000206B401C2063E08E401EE0864FF0000909
:1023F00020688168C9070CD0E18F51B1C068A16B1A
:102400000870A06B401CA063E08F401EE0874FF077
:102410000109FFF783F8C01BB04202D3701C01D042
:1024200011E086B1E08E0028CED1E08F0028CBD11C
:102430003A463146204601F08DFC50B120206065BF
:1024400084F8508012E084F851A084F85080032072
:1024500068E7A06818B92068C1688068009084F8AF
:1024600051A084F85080606D0028F1D0012059E718
:102470007047704770B590F83C20012A2CD0012499
:1024800080F83C40022280F83D2003685A689D682D
:1024900022F070060A6832435A60104B02689A4272
:1024A0000ED0B2F1804F0BD00D4B9A4208D00D4B9D
:1024B0009A4205D00C4B9A4202D00C4B9A4204D15E
:1024C000496825F080031943916080F83D40002160
:1024D00080F83C10084670BD022070BD000001402D
:1024E0000004004000080040000C00400040014093
:1024F00010B5040003D094F83D0010B107E00120AE
:1025000010BD002084F83C00204600F01FF8022097
:1025100084F83D00211D206801F08EFD012084F823
:10252000460084F83E0084F83F0084F8400084F8B8
:10253000410084F8420084F8430084F8440084F8A1
:10254000450084F83D00002010BD000008B500687B
:102550000649884208D10648016841F0020101603D
:10256000006800F00200009008BD00000004004078
:102570004038024090F83D10012901D001207047F9
:10258000022180F83D100168CA6842F00102CA6069
:1025900000680E4988420ED0B0F1804F0BD00C4934
:1025A000884208D00B49884205D00B49884202D0A6
:1025B0000A49884204D1816801F00701062903D045
:1025C000016841F0010101600020704700000140F6
:1025D0000004004000080040000C004000400140A2
:1025E00070B5044690F83C000025012817D001265C
:1025F00084F83C60022084F83D002068826822F064
:10260000770222F47F4282600868502838D00DDCBF
:1026100020284FD005DC90B3102811D14AE00220C9
:1026200070BD302846D040280AD13BE060282FD02A
:1026300070280DD0B0F5805F03D0B0F5005F12D0E8
:10264000012584F83D60002084F83C00284670BDD8
:10265000CB68D1E90121206801F04BFD2068816839
:1026600041F0770109E0CB68D1E90121206801F050
:1026700040FD2068816841F480418160E1E719E014
:10268000CA684968206801F0E9FD5021206806E029
:10269000CA684968206801F0F2FD6021206801F0F5
:1026A00032FDCEE7CA684968206801F0D7FD4021B5
:1026B0002068F4E7226801461046F0E770472DE9EC
:1026C000F04104460068C66805694FF00007A90795
:1026D00013D5B10711D5F91E0161012020772068BB
:1026E00080698007204602D0FFF7E8FF04E000F091
:1026F000BBF8204600F04DF92777680716D570071C
:1027000014D521686FF0040008610220207720684A
:10271000806910F4407F204602D0FFF7CFFF04E02D
:1027200000F0A2F8204600F034F92777280715D5E5
:10273000300713D521686FF0080008610420207766
:102740002068C0698007204602D0FFF7B7FF04E089
:1027500000F08AF8204600F01CF92777E80616D525
:10276000F00614D521686FF010000861082020776A
:102770002068C06910F4407F204602D0FFF79EFF1A
:1027800004E000F071F8204600F003F92777E8072D
:1027900008D0F00706D021686FF0010008612046DC
:1027A00000F050F9280608D5300606D521686FF0EC
:1027B000800008612046FFF75BFE680608D57006BA
:1027C00006D521686FF040000861204600F044F90A
:1027D000A8060AD5B00608D521686FF02000086168
:1027E0002046BDE8F041FFF744BEBDE8F08100009F
:1027F00030B587B0044614216846FDF799FD1649A7
:102800002068884226D115480024016841F0010162
:102810000160016801F001010591016841F00201C8
:1028200001600068022500F002000590C0200090C1
:10283000CDE9015469460A48CDE90345FEF778FD24
:1028400003200090CDE9015469460648CDE90345CF
:10285000FEF76EFD07B030BD000400403038024086
:102860000000024000040240704770B5044690F832
:102870003C0000260D4601280FD0012084F83C00C2
:102880006AB1042A1DD0082A2FD00C2A3FD0012675
:10289000002084F83C00304670BD022070BD2068E6
:1028A00001F03AFC2068816941F0080181612068EB
:1028B000816921F004018161206881692A691143DD
:1028C00011E0206801F050FC2068816941F400614A
:1028D00081612068816921F480618161206881695A
:1028E0002A6941EA02218161D2E7206801F068FC8F
:1028F0002068C16941F00801C1612068C16921F007
:102900000401C1612068C1692A69114311E020688E
:1029100001F082FC2068C16941F40061C161206856
:10292000C16921F48061C1612068C1692A6941EAF5
:102930000221C161ACE710B5040003D094F83D005A
:1029400010B107E0012010BD002084F83C002046B3
:1029500000F01EF8022084F83D00211D206801F0DF
:102960006BFB012084F8460084F83E0084F83F00A9
:1029700084F8400084F8410084F8420084F8430061
:1029800084F8440084F8450084F83D00002010BD20
:102990007047704710B50446022249B104290ED091
:1029A000082913D094F84100012816D0012010BD49
:1029B00094F83E000128F9D184F83E200FE094F805
:1029C0003F000128F2D184F83F2008E094F840004D
:1029D0000128EBD184F8402001E084F84120012255
:1029E000206801F079FB12492068884203D1426CCB
:1029F00042F400424264206888420ED0B0F1804F19
:102A00000BD00C49884208D00B49884205D00B49AD
:102A1000884202D00A49884204D1816801F0070146
:102A2000062903D0016841F001010160002010BDBA
:102A3000000001400004004000080040000C00407D
:102A40000040014000680349884201D1FEF7FEBF03
:102A50007047000000440140704770477047000015
:102A6000F8B5016804460868CA684B6910F00F0F92
:102A70004FF0000559D003F0010602F49077374378
:102A800065D0C10705D0D10503D5616C41F00101C6
:102A90006164410705D5D90703D0616C41F002019B
:102AA0006164810705D5D90703D0616C41F0040149
:102AB0006164010707D502F02001314303D0616C46
:102AC00041F008016164616C00293AD0800604D5A8
:102AD000900602D5204601F012FC20684069616C26
:102AE000C0F38010090700D460B3204601F0E0FB7A
:102AF00020684069400621D52068143050E8001F46
:102B000021F0400140E80012002AF5D1E06BA8B1A5
:102B100072490165E06BFEF7E6FB002811D0E06B1F
:102B2000016D01B0BDE8F040084783060FD593065C
:102B30000DD52046BDE8F84001F0E1BB2046FFF787
:102B40008DFFF8BD2046FFF789FF6564F8BD266B51
:102B50002023012E7ED1C6067CD5D6067AD50868FC
:102B60004868009048694FF0020640064DD5E26B78
:102B7000106840684FF480770004000C3AD0A18DB3
:102B8000814237D9E085D069B8422DD020680C3019
:102B900050E8001F21F4807140E80012002AF5D1AE
:102BA0002068143050E8001F21F0010140E80012B5
:102BB000002AF5D12068143050E8001F21F04001B0
:102BC00040E80012002AF5D184F8423025632068DD
:102BD0000C3050E8001F21F0100140E80012002ADC
:102BE000F5D1E06BFEF736FB6663A08DE18D401AF0
:102BF00081B206E0A18D8142A8D1D069B842A5D1A9
:102C000066632046FFF729FFF8BDA08DE18D401ACD
:102C100081B2E08D0028F7D00029F5D020680C3073
:102C200050E8002F22F4907240E80027002FF5D1E1
:102C30002068143050E8002F22F0010240E80027FD
:102C4000002FF5D184F84230256320680C3050E81D
:102C5000002F00E006E022F0100240E80023002BE5
:102C6000F3D1CDE705062BD5150629D594F84100FB
:102C70002128C9D1A068B0F5805F01D12069B0B129
:102C8000206A411C2162216800784860E08C401E67
:102C90000004000CE084B7D12068C16821F08001F5
:102CA000C1602068C16841F04001C160F8BD206A80
:102CB0000088C0F308004860206A801C2062E5E7B5
:102CC0004006F3D55006F1D5CA68204622F04002EE
:102CD000CA6084F8413000F0E9F8F8BDA34200086A
:102CE00070B5040004D094F84100002510B106E04E
:102CF000012070BD84F84050204600F023F82420C5
:102D000084F841002068C16821F40051C160204668
:102D100001F056FB2068016921F4904101612068AF
:102D2000416921F02A0141612068C16841F40051E4
:102D3000C1606564202084F8410084F84200656326
:102D4000002070BD10B586B0044614216846FDF71A
:102D5000EFFA18492068884229D1174800210268F3
:102D600042F010020260006800F010000590124866
:102D70001438026842F001020260006800F00100AD
:102D800005904FF4C06000900220CDE901010320BE
:102D900003900720049069460848FEF7C9FA00220C
:102DA00005212520FEF7E4FE2520FEF7D3FE06B020
:102DB00010BD0000001001404438024000000240F5
:102DC00090F84230202B01D00220704721B11AB177
:102DD0000023036301F07ABB0120704710B500683F
:102DE000074988420BD107484078FEF7BDF80549EE
:102DF0000122BDE81040491C0348FFF7E1BF10BDA8
:102E0000001001408E000020FC0300202DE9F84353
:102E1000044690F84100984616460D46202802D0F8
:102E20000220BDE8F88385B17EB1002060642120D6
:102E300084F84100FEF772FBA6848146E684A06810
:102E40002027B0F5805F02D003E00120E9E7206988
:102E500010B12E4600250EE000260CE08021204611
:102E600001F04FFBA8B9C6B116F8010B2168486004
:102E7000E08C401EE084E08C4B464FF00002CDF821
:102E800000800028EAD14FF04001204601F039FBD4
:102E900040B184F841700320C3E735F8020BC0F35A
:102EA0000800E3E784F841700020BAE77047FEE7C6
:102EB00001684A69D24352050FD46FF480624A61B7
:102EC000002140F8301F202242738173026942F0D2
:102ED0000402026101730120704700207047000066
:102EE0002DE9F84F0446006889460B9D0168984615
:102EF000174641F4806101602068016841F48071E7
:102F0000016000954FF0011B0022594620460A9BA4
:102F100000F0E4F84FF4007A40B120680068C00582
:102F200001D5C4F840A00320BDE8F88F216809F05E
:102F3000FE0008612B46284920460A9A00F016F93F
:102F4000F0BB20684169806900902A4620460A99B2
:102F500000F0A2F940B1206C04283AD12068016841
:102F600041F40071016034E0FEB2B8F1010F09D004
:102F70002168380A08612A4620460A9900F08CF92F
:102F80000028E8D1206806612A4620460A9900F008
:102F900083F90028DFD12068016841F48071016065
:102FA00000950022594620460A9B00F097F8002819
:102FB000B3D1216809F0FF0040F00100086100E092
:102FC00007E02B46044920460A9A00F0CFF8002873
:102FD000AAD00120A8E70000020001002DE9F84373
:102FE000044600680D46DDE90897016898461646D4
:102FF00041F4807101604B4600224FF001112046E0
:10300000009700F06BF848B120680068C00502D551
:103010004FF4007020640320BDE8F883216805F0B8
:10302000FE0008613B464A461549204600F09EF8DE
:1030300088B920684169806900903A46494620462F
:1030400000F02AF948B1206C042804D120680168F6
:1030500041F4007101600120DEE7F5B2B8F1010F23
:1030600009D02168300A08613A464946204600F0F6
:1030700013F90028E7D1206805610020CCE70000A3
:103080000200010070B516460D4604461EE02046BB
:10309000FFF70EFF08B1012070BD681C16D0FEF7C7
:1030A0003DFA801BA84200D885B920684069C0431A
:1030B00040070BD5002044F8300F20216173A07326
:1030C000216941F0200121612073E4E72068406913
:1030D000C0434007DBD4002070BD00002DE9F0475D
:1030E000984617460D460446C1F30746DDF8209082
:1030F0002AE000BFB8F1FF3F26D0FEF70FFAA0EBA1
:103100000901414502D8B8F1000F1DD12068012EF8
:1031100016D0806925EA00000004000C12D00020BF
:10312000B84211D1002044F8300F20216173A07300
:10313000216941F02001216120730120BDE8F08761
:103140004069E7E70120EBE72068012E0AD080699B
:1031500025EA00000004000C06D00020B842C9D0C7
:103160000020EBE74069F3E70120F7E72DE9F0479E
:10317000984616460D4604464FF000094FF0200AC7
:10318000C1F3074723E020684069C043400515D4D8
:103190002068016841F40071016021686FF480606B
:1031A0004861C4F8309084F83DA084F83E90216CCA
:1031B00041F00401216484F83C9021E0701C06D0A9
:1031C000FEF7ACF9A0EB0800B04203D816B1012F0E
:1031D0001FD021E02068012F15D0806925EA00006A
:1031E0000004000C18D000BF44F8309F84F80DA0F4
:1031F00084F80E90216941F02001216184F80C903F
:103200000120BDE8F087406925EA00000004000CB9
:10321000EAD12068406901E02068806925EA000061
:103220000004000CAFD1ECE72DE9F04100259046F9
:103230000E460446202728E04069C043C0060CD44F
:1032400054F8301B6FF01000486144F8105967774C
:10325000A577206A2062257714E0FEF75FF9A0EBDE
:103260000800B04200D886B920684069C0434006D3
:103270000BD544F8305F6773A573206940F02000D8
:10328000206125730120BDE8F08120684169C943B0
:103290004906D1D40020F6E770B516460D4604461F
:1032A0001EE02046FFF704FE08B1012070BD681C37
:1032B00016D0FEF733F9801BA84200D885B92068E4
:1032C0004069C04300060BD5002044F8300F202190
:1032D0006173A073216941F0200121612073E4E74B
:1032E00020684069C0430006DBD4002070BD0000A8
:1032F00000280CD0064991ED070A80ED000A91EDF7
:10330000080A80ED010A91ED090A80ED020A704772
:103310008C4100201FB56420FDF7F8FF80216B2051
:1033200000F050F96420FDF7F1FF00208DF80C004B
:103330006423012103A88DE80B000B467522D221DE
:103340001148FEF7B5F99DF80C1010A001F03EF9F8
:1033500001216B2000F036F90A20FDF7D7FF182174
:103360001B2000F02FF910211C2000F02BF9032165
:103370001A2000F027F90021192000F023F9BDE8F8
:103380001F40FDF70DBF0000080300204D505539C8
:103390003235302057484F5F414D5F493D307825E9
:1033A0003032582028657870656374203078373162
:1033B000290D0A0030B52DED0C8B87B09FED529A88
:1033C000DFED529A64220E2103A88DE80700012345
:1033D0003B22D2214E48FEF76BF900287DD1BDF883
:1033E0000C00BDF8101040BABDF8163005B249BA4D
:1033F0005BBA00EE105A0AB21CB2BDF80E00BDF85E
:103400001410BDF81830B8EEC0CA40BA49BA5BBA59
:1034100000B209B21BB2DFED3FAA00EE100A3F482E
:103420002CEE2A1AB8EEC00A60EE2A8A00EE102AA4
:10343000B8EEC00A20EE2A8A00EE101AF8EEC01A82
:103440009FED350AC1EE800AD0ED001A30EEE1BAE8
:1034500000EE904AA0F12804F8EEE01AC1EE800ACE
:10346000D0ED011A30EEE1AA00EE903AF8EEE00A53
:10347000C0EE801A90ED020A84ED031AC4ED048AAE
:1034800084ED058A84ED00BA84ED01AAF0EE480AC5
:1034900071EEC0BAB0EE680AC4ED02BA01F0CEF81F
:1034A0009FED1FDA60EE0DCA28EEA80A08EE080AA2
:1034B00001F0ECF9F0EE400A2CEE6A0A01F0BEF8D9
:1034C000D4ED070A20EE0D0A4BEE090A20EEA91AE8
:1034D000DFED140A0CEEA01A00E011E084ED071AEB
:1034E00094ED081A0AEE091A21EE291A00EE201AA4
:1034F00084ED081A94ED090A0BEE890A84ED090A95
:1035000007B0BDEC0C8B30BD6F12833A48E17A3FB7
:10351000080300200000803933338341B441002088
:10352000E12E654200D7A33C034902200022087027
:10353000C1010248FDF7ECBF8C00002000040240EE
:1035400001490870704700008C0000201B4EDFF816
:1035500070904FF4FA7500274FF480783078062881
:1035600016D2DFE800F003060D0F11132C460022DF
:1035700001E02C46012241464846FDF7C9FF08E01C
:103580002C460DE0C8240BE0642409E014240EE06E
:103590002C463078022803D0032801D0042806D115
:1035A0004FB100273A4641464846FDF7B1FF204655
:1035B00001F010FCD2E701273A46F4E78C00002026
:1035C0000004024003B583B06423012204A98DE8FE
:1035D0000E0013460246D2210248FEF76BF905B0F1
:1035E00000BD00000803002010B59CB01C22164945
:1035F0006846FCF784FE0021684601F0F7FB134C97
:1036000011491C2220601C3107A8FCF778FE00211C
:1036100007A801F0EBFB0C4960601C2238310EA8B2
:10362000FCF76DFE00210EA801F0E0FB0649A0604A
:103630001C22543115A8FCF762FE002115A801F0E8
:10364000D5FBE0601CB010BD9858000800000020B9
:103650002DE9F04387B014216846FCF769FE2A483B
:103660000024016841F080010160016801F08001DF
:103670000591016841F001010160016801F001015B
:103680000591016841F0020101600068012200F02B
:103690000200DFF878901703059039464846FDF799
:1036A00037FFDFF86C803E11002231464046FDF7BF
:1036B0002FFF002231464846FDF72AFF042001254E
:1036C0008DE8310069464846FDF732FE0320CDE91A
:1036D0000240CDE9007569464846FDF729FE022003
:1036E000CDE90240CDE9006569464046FDF720FE80
:1036F0000096CDE90154694648460394FDF718FE4B
:1037000007B0BDE8F08300003038024000040240FA
:10371000000002400D4810B50B4901600C494160A2
:1037200000214FF480428160C0E903124161816150
:10373000C1610162FDF7F8FE002803D0BDE810402A
:10374000FDF72BBD10BD0000005400400803002011
:10375000801A0600104810B50E4901604FF48271BE
:10376000416000218160C1604FF400720161C0E9D5
:1037700005121022C0E90721416281620A21C1625B
:10378000FEF7EAFC002803D0BDE81040FDF705BDB8
:1037900010BD0000003800405C03002010B58EB062
:1037A00000240794089409940A940B941C216846F9
:1037B0000C94FCF7BDFD2A4828490160F921C0E9B5
:1037C000011440F2E731C0E903148461FEF790FE72
:1037D00008B1FDF7E2FC4FF48050079007A920489C
:1037E000FEF7FEFE08B1FDF7D8FC1D48FFF7A3F871
:1037F00008B1FDF7D2FC0B940BA919480C94FEF705
:1038000039FE08B1FDF7C9FC6020CDE9000402943F
:103810000022694612480494FFF727F808B1FDF723
:10382000BCFC042269460E48FFF71FF808B1FDF7FB
:10383000B4FC082269460A48FFF717F808B1FDF7FB
:10384000ACFC0C2269460648FFF70FF808B1FDF7FB
:10385000A4FC0348FEF7CCFF0EB010BD00040040EE
:10386000B40300200C4810B50A4901604FF4E1315F
:103870004160002181600C22C160C0E904128161B5
:10388000C161FFF72DFA002803D0BDE81040FDF715
:1038900084BC10BD00100140FC030020FEE70000C6
:1038A000042801D300207047094951F82010094825
:1038B000006831B1042906D0082906D0006C80B216
:1038C0007047406BFBE7806BF9E7C06BF7E70000E0
:1038D00020590008B403002032231A46194618461E
:1038E00000F018B810B500210948FFF753F804217B
:1038F0000748FFF74FF808210548FFF74BF80C2160
:103900000348FFF747F8BDE8104000F037B8000063
:10391000B403002030B50C4601461546002000F0E7
:103920000FF82146012000F00BF82946022000F094
:1039300007F8BDE830401946032000F001B8000048
:1039400004280FD2B1F57A7F01D340F2E731094A5A
:1039500052F82020084800682AB1042A05D0082A15
:1039600005D0016470474163704781637047C1634C
:103970007047000020590008B403002000231A46B5
:1039800019461846FFF7C6BFFEE7000070EE600A52
:10399000D0ED031A90ED000A40EE811A20EE200AC5
:1039A000C0ED031A90ED042AF4EEC21AF1EE10FAFB
:1039B00006DCB1EE422AF4EEC21AF1EE10FA01D2A0
:1039C00080ED032AD0ED011A90ED032A11EE101AB2
:1039D000124A01EE820A91420BDD90ED052AD0EDEC
:1039E000021A30EEC22A61EE821A81EE812A32EE8C
:1039F000000AC0ED050AD0ED060AF4EEC00AF1EEA9
:103A000010FA01D2B0EE600AD0ED070AF4EEC00A57
:103A1000F1EE10FA01DDB0EE600A704717B7D13849
:103A200080EC030A9FED070A80ED030AC0ED041A3B
:103A300080ED050A80ED062AB1EE420A80ED070A04
:103A400070470000000000002DE9FC4158A1012250
:103A5000D1E90001CDE90001574D14032146284664
:103A6000FDF756FD554F2611002231463846FDF729
:103A70004FFD0520FDF74AFC51A000F0A7FD0020F6
:103A800000F01CF9014655A000F0A0FD012000F057
:103A900015F9014659A000F099FD00F029F90146F9
:103AA0005EA000F093FD0321084600F037F9552190
:103AB000042000F033F92821052000F02FF90D2112
:103AC000062000F02BF9052269460A2000F05AFD75
:103AD00005226946102000F055FD2021112000F03C
:103AE0001DF90121084600F019F90121022000F01A
:103AF00015F901211C2000F011F904211D2000F00E
:103B00000DF90F21002000F009F90220FDF7FEFB5E
:103B1000002221462846FDF7FBFCE12000F050F989
:103B2000012221462846FDF7F3FC002221462846C3
:103B3000FDF7EEFCE22000F043F901222146284681
:103B4000FDF7E6FC012231463846FDF7E1FC38A0DE
:103B500000F03CFD002000F0B1F801463AA000F072
:103B600035FD012000F0AAF801463CA000F02EFD32
:103B7000052000F0A3F801463DA000F027FD062037
:103B800000F09CF801463FA000F020FD002000F06E
:103B900095F80F2809D0002000F090F801463EA0CB
:103BA00000F014FD0020BDE8FC810120FBE70000CF
:103BB00034431010010000000004024000000240E5
:103BC00053493234523120706F7765722D6F6E20F9
:103BD00064656661756C74733A0D0A002020434F6A
:103BE0004E4649473D307825303258202865787058
:103BF0006563742030783038290D0A002020454E46
:103C00005F4141203D30782530325820286578705A
:103C10006563742030783346290D0A002020535400
:103C2000415455533D3078253032580D0A0000007C
:103C300053493234523120616674657220696E696D
:103C4000743A0D0A000000002020434F4E464947B9
:103C50003D3078253032580D0A0000002020454EB6
:103C60005F4141203D3078253032580D0A00000078
:103C7000202052465F4348203D3078253032580D91
:103C80000A000000202052465F53455455503D30F5
:103C900078253032580D0A005349323452312069A8
:103CA0006E6974206661696C65642120434F4E46DD
:103CB00049473D3078253032580D0A0070B50B4E1B
:103CC00004464FF48055002229463046FDF720FC7B
:103CD000204600F075F8FF2000F072F8044601223B
:103CE00029463046FDF714FC204670BD0004024012
:103CF00070B5094E4FF48055002229463046FDF735
:103D000007FCFF2000F05CF80446012229463046FB
:103D1000FDF7FEFB204670BD000402402DE9F04196
:103D20000B4E0F4604464FF480550022294630467C
:103D3000FDF7EEFB44F0200000F042F8384600F0BA
:103D40003FF829463046BDE8F0410122FDF7E0BBCF
:103D500000040240F8B515460E460B460092044694
:103D60000122022100F042F8A0B91348134900686B
:103D7000B0FBF1F04FF47A71484300906068B0F501
:103D8000827F0DD13346002280212046009500F02D
:103D90002DF870B1606D40F0200060650320F8BD23
:103DA000009830B1401E009020688068C043000633
:103DB000F6D50020F8BD00001C00002000366E0182
:103DC00001B582B0FF208DF804006420009001232B
:103DD00001AA02A90448FEF753FA08B1FF200EBD5C
:103DE0009DF804000EBD00005C0300202DE9F8439F
:103DF0001E46914688460446089DFDF78FFB401BF2
:103E0000351AFDF78BFB074626480068C0F3CB3018
:103E100068430AE0701C09D0FDF780FBC01BA84274
:103E20000FD275B10098B8B3401E00902068816829
:103E300038EA010033D000214945EBD10020BDE82C
:103E4000F8832068416821F0E00141606068B0F5C6
:103E5000827F0BD1A068B0F5004F02D0B0F5806F23
:103E600004D12068016821F040010160A06AB0F52A
:103E7000005F09D12068016821F4005101602068C9
:103E8000016841F400510160012084F851000020D4
:103E900084F850000320D2E7FFE70025C6E70121A0
:103EA000CAE700001C00002000F0B4F8FFF782FA17
:103EB000FDF7BCF8012000F08DFFF5E710B50446D2
:103EC000FFF732FB2046BDE81040FFF73FBBFDF790
:103ED0005DB8FCF753FB0A2000F07CFFF9E7000017
:103EE00010B5502080F31188BFF34F8FBFF36F8F51
:103EF00001F00AFC18B104494FF08050086000201E
:103F000080F3118810BD000004ED00E030B593B0DF
:103F100030216846FCF70CFA14210CA8FCF708FACB
:103F20001C480024016841F080510160006800F0E5
:103F3000805011901848016841F4404101600068C8
:103F4000022500F4404011900120039010200490BD
:103F5000009506950820CDE907406420CDE90905C4
:103F600004200B906846FDF741FF08B172B6FEE7EA
:103F70000F20CDE90C054FF48050CDE90E40032110
:103F80000CA81094FDF726FE002801D072B6FEE7BB
:103F900013B030BD40380240007000400248016854
:103FA00041F470010160704788ED00E001484078FD
:103FB000704700007C410020014880787047000075
:103FC0007C41002001480078704700007C410020BF
:103FD0000148006870470000880000200549002063
:103FE0000870487088704860886008734873024998
:103FF000086070477C41002088000020014948701B
:10400000704700007C4100200149087070470000A3
:104010007C41002003480168491C01600068024996
:1040200048607047880000207C4100200148FEF76E
:1040300046BB000044040020F0B502681F4B204C32
:10404000204D214E4FF0804C984207D0604505D05E
:10405000A04203D0A84201D0B04203D122F07007A1
:104060004A683A43984210D060450ED0A0420CD026
:10407000A8420AD0B04208D0144CA04205D0144C3B
:10408000A04202D0134CA04203D122F44074CA686B
:1040900022434C6922F0800222438C68C4620C687F
:1040A0008462984201D109690163016841F0040109
:1040B0000160012141610260F0BD0000000001408B
:1040C0000004004000080040000C00400040014097
:1040D000004401400048014010B501F01F030121D8
:1040E000046A99408C430462016A9A401143016258
:1040F00010BD10B5846842EA032224F47F440A43C9
:104100002243826010BD826822F070020A4342F0AE
:10411000070181607047000030B5036A026A22F02F
:10412000010202624268846924F073050C682C4322
:1041300023F002058B682B430A4DA8420BD123F0D4
:104140000805CB6822F440722B434D6923F0040329
:1041500015438A692A434260846149684163036266
:1041600030BD00000000014030B5026A036A23F050
:1041700010030362436884690D6824F4E64444EA4A
:1041800005248D6822F0200242EA05120B4DA84258
:104190000ED1CD6822F0800242EA05124D6923F467
:1041A000406343EA85038D6922F0400243EA8503B8
:1041B0004360846149688163026230BD0000014050
:1041C00030B5036A026A22F4807202624268C469EE
:1041D00023F4007324F073050C682C438D6843EAC4
:1041E00005230C4DA8420ED1CD6823F4006343EAA9
:1041F00005234D6922F4405242EA05128D6923F4E9
:10420000806342EA05124260C4614968C163036287
:1042100030BD00000000014030B5046A026A22F49B
:10422000805202624268C3690D6823F4E64343EAA0
:1042300005238D6824F4005444EA0534064DA84251
:1042400004D14D6922F4804242EA85124260C36182
:1042500049680164046230BD0000014010B5036A82
:10426000046A24F001040462846924F0F00444EA3E
:10427000021423F00A020A438461026210BD10B5E1
:10428000036A046A24F010040462846923F0A00322
:1042900024F4704444EA023243EA0111826101626B
:1042A00010BD10B5806B0021C185FEF7D7FB10BD96
:1042B00001680C3151E8002F22F4907241E800238C
:1042C000002BF5D10168143151E8002F22F00102D2
:1042D00041E80023002BF5D1016B012909D10168C8
:1042E0000C3151E8002F22F0100241E80023002B8E
:1042F000F5D1202180F8421000210163704708B5F4
:1043000090F84210222901D0022008BD82684FF4A3
:1043100080539A4201D1016921B1816A9A421BD02E
:104320004AB10AE00268816A5268C2F308020A8050
:10433000816A891C08E0026972B10268526802F061
:104340007F020A70816A491C8162C18D491E09047D
:10435000090CC18503D01BE002685268F1E70168CF
:10436000CA6822F02002CA600168CA6822F480721A
:10437000CA6001684A6922F001024A61202180F87E
:10438000421000214163026B012A03D0FEF726FD93
:10439000002008BD016301680C3151E8002F22F0B4
:1043A000100241E80023002BF5D101680A68D2060B
:1043B00002D50A6849680091818DFEF74EFBE7E758
:1043C00070B5044600680169E26821F44051114368
:1043D00001612169A068E2690843616911430843EA
:1043E0002168CA6849F20C639A430243CA60206894
:1043F0004169A26921F4407111434161314920684A
:10440000884202D03049884202D1FDF7ADFC01E07C
:10441000FDF79AFCE2690023192164253226B2F5E2
:10442000004F626828D0A0FB0101930F9200FBF7B8
:104430002FFF0146B0FBF5F06FF01802504301EB7F
:10444000800006EB0010B0FBF5F000F0F002B1FBCD
:10445000F5F002EB0012B1FBF5F06FF018035843D2
:1044600001EB800006EB0010B0FBF5F000F00F0050
:1044700021681044886070BDA0FB010192185B4167
:10448000FBF706FF0146B0FBF5F00201B1FBF5F0CA
:104490006FF01803584301EB800006EBC000B0FB3F
:1044A000F5F000F0F80002EB4002B1FBF5F05843E4
:1044B00001EB800006EBC000B0FBF5F000F0070058
:1044C000D6E700000010014000140140816282859F
:1044D000C28500214164222180F84210016921B186
:1044E0000168CA6842F48072CA6001684A6942F091
:1044F00001024A610068C16841F02001C1600020EA
:1045000070472DE9F843984617460D460446089E25
:1045100024E0701C22D0FDF701F8A0EB0800B042A7
:104520001AD8CEB12068C168490717D5802D15D09B
:10453000402D13D00168C94309070FD40168002535
:10454000406800902046FFF7B3FE0820606484F8BE
:1045500040500120BDE8F8830320FBE72068006895
:1045600035EA000004D00020B842D2D00020F1E7A4
:104570000120F9E70148FEF773BA0000FC030020B0
:10458000FEE700002DE9F041DFF83C8015460E46BD
:1045900004464FF48057002239464046FCF7B8FFE6
:1045A00044F02000FFF70CFC002404E0305DFFF72E
:1045B00007FC641CE4B2AC42F8D339464046BDE87F
:1045C000F0410122FCF7A4BF000402400FB4054BE8
:1045D00010B503A9044A029800F096F910BC5DF8E2
:1045E00014FB00006D4D0008AC00002041000802E3
:1045F00018BF04200A0E18BF40F001004FF07F42A0
:1046000032EA010108BF40F00200012808BF05207E
:1046100070470907090E002804DB00F1E02080F84C
:104620000014704700F00F0000F1E02080F8141D26
:104630007047000000487047B000002010EE100ADC
:1046400010B510EE901A4FF0684202EB40032DEDCA
:10465000028BB3F1654F3CBF02EB4102B2F1654FF3
:104660007CD200BFC0F3C753C1F3C7529A1A1B2AAA
:1046700009DD10F0004F14BF9FED6E0A9FED6E0A2A
:10468000BDEC028B10BD12F11A0F1BDA11F0004FB6
:1046900009D010F0004F0CBF9FED680A9FED680A2B
:1046A000BDEC028B10BD80EE208A18EE100AFFF7D9
:1046B0009DFF042808BF00F009F9B0EE480ABDECE0
:1046C000028B10BD4200B2EB410F37D910F0004F02
:1046D00019BFDFED5C1A9FED5C1ADFED5C1A9FEDF0
:1046E0005C1AB0EE602A0A46F1EE400A80F0004102
:1046F000B0EE420A10460A1A5200B2F1807F34D25C
:10470000484010F0004FDFED532A9FED533A1DBF94
:10471000BEEE002A71EEE21A31EE431AB6EE002A1E
:1047200004BF71EEA21A31EE031AF0EE402A42EEF7
:10473000602A40EE020A82EEA02A18E011F0004F33
:1047400004BF9FED461AF0EE411AD4D010F0004F8E
:104750001CBFDFED431A9FED431A00E026E004BFC3
:10476000DFED411A9FED411AC5E780EE202A22EEC7
:10477000020ADFED3F0ADFED3F2ABDEC028B40EE7F
:10478000202ADFED3D0A40EE220ADFED3C2A40EE12
:10479000202ADFED3B0A40EE220A22EE000A00EE5C
:1047A000201A31EE020A30EE210A10BD4FF07F428E
:1047B000B2EB400F28BFB2EB410F05D2BDEC028B2C
:1047C000BDE8104000F07FB840EA01035B0008BF7D
:1047D00041F0FF410BD0B2EB400F08BFB2EB410FED
:1047E00008D120F0804000EE100A21F0804100EE58
:1047F000901A37E7B2EB400F12BF5FEA410240F078
:10480000FF4001F000413FF42DAF4A0092EA40031F
:104810003FF528AF002AACBF9FED1A1A9FED1A1A78
:1048200020EE010A60EE810A10EE100A10EE901AD6
:1048300018E70000DB0FC9BFDB0FC93FDB0F4940A2
:10484000DB0F49C00000C9BF22AAFDB90000C93F63
:1048500022AAFD390060ED3EC30ACE3700000000F9
:10486000000049C022AA7DBA0000494022AA7D3A30
:104870002DAD65BD8FB8D53D0FB511BE61C84C3E9D
:10488000A8AAAABE0000804F0000802F10B52DED11
:10489000028BB1EEC08A18EE100A20F00040C0F181
:1048A000FF40C00F0AD010EE100A20F00040C0F107
:1048B000FF40C00F04BF012000F020F8B0EE480A0E
:1048C000BDEC028B10BD30EE200A70479FED020A4E
:1048D00020EE000A704700000000001002E008C847
:1048E000121F08C1002AFAD170477047002001E06A
:1048F00001C1121F002AFBD1704700000149086066
:1049000070470000B00000202DE9FF4F8DB00F462A
:104910000546002606E025280BD0DDE90F1290475A
:104920006D1C761C28780028F5D111B03046BDE802
:10493000F08F0024A246A1460122EC4900E0044386
:1049400015F8013F203B02FA03F00842F7D128781E
:104950002A2810D06FF02F022878A0F13001092901
:1049600014D80AEB8A0102EB410144F0020400EB87
:10497000010A6D1CF0E701CF5FEA000A03D544F499
:104980000054CAF1000A44F002046D1C28782E2855
:1049900017D115F8010F44F004042A280ED06FF047
:1049A0002F022878A0F1300109290AD809EB8901E2
:1049B00002EB410100EB01096D1CF2E757F8049B83
:1049C0006D1C28786C280FD006DC4C2817D068287E
:1049D0000DD06A2814D104E0742810D07A280FD1A1
:1049E0000DE044F400140AE044F4801401E044F4BF
:1049F00040146978814202D104F580146D1C6D1C4D
:104A00002A786E2A1FD00CDC632A31D004DC002AFD
:104A10008BD0582A11D1A3E0642A68D0692A0CD11E
:104A200065E0732A2ED004DC6F2A73D0702A04D17B
:104A30009BE0752A6FD0782A6ED01046DDE90F1200
:104A40009047761C50E1C4F30250022806D0032898
:104A500009D0042801CF09D0066045E101CFF11744
:104A6000C0E9006140E101CF06803DE106703BE115
:104A700017F8040B8DF8000000208DF80100EB46BC
:104A8000012003E057F804BB4FF0FF3061074FF0FF
:104A9000000102D40DE008F10101884649450FDA12
:104AA0008045F8DB1BF808100029F4D108E008F174
:104AB000010188468142FADB1BF808100029F6D173
:104AC000DDE90F23AAEB08008146214600F036F904
:104AD000304400EB080604E0DDE90F121BF8010B7F
:104AE0009047B8F10108F7D221464846F7E00A217D
:104AF000C4F302534FF0000B0891022B04D001CFF6
:104B0000C117032B09D00AE0FF1D27F00707F7E8BC
:104B1000020108E032E01FE020E000B2C117042BE0
:104B200001D140B2C117031E71F1000307DA4FF043
:104B3000000CD0EB0C006CEB01012D2302E02305EF
:104B400004D52B238DF82430012303E0E30701D0A3
:104B50002023F7E7984658E00A2110E010210EE0E4
:104B600010204FF0000B08900CE010214FF0000BCC
:104B700044F004044FF00809089103E008214FF0C5
:104B8000000B0891C4F30253022B04D001CF002183
:104B9000032B06D006E0FF1D27F00707F7E8020108
:104BA00003E080B2042B00D1C0B24FF0000823070D
:104BB0002BD5702A07D0DDF820C08CF0100C5CEAF1
:104BC0000B0C05D00EE040238DF82430012308E0C3
:104BD00050EA010306D030238DF824308DF82520CB
:104BE00002239846DDF820C08CF0080C5CEA0B0C20
:104BF0000BD150EA010301D1630706D530238DF8AC
:104C000024304FF00108A9F10109582A04D038A234
:104C10000B9208AA0A920BE03AA2F9E75B46089ABF
:104C2000FBF736FB0B9B9B5C0A9A521E0A92137091
:104C300050EA0102F2D10A98ADEB000000F1200B1E
:104C4000600702D524F4803401E04FF00109D94512
:104C500002DDA9EB0B0000E0002000EB0B0141445A
:104C60000890AAEB010AE00306D4DDE90F232146F0
:104C7000504600F063F806444FF0000908E009A927
:104C800011F80900DDE90F12904709F10109761CBE
:104C9000C145F4DBE0030CD5DDE90F232146504686
:104CA00000F04CF8064404E0DDE90F123020904794
:104CB000761C0899481E08900029F5DC08E00A983F
:104CC0000A990078491C0A91DDE90F129047761C79
:104CD000BBF10001ABF1010BF1DC21465046DDE9EF
:104CE0000F2300F019F806446D1C1BE6092801008B
:104CF0003031323334353637383961626364656652
:104D00000000000030313233343536373839414213
:104D100043444546000000002DE9F04104460025CB
:104D20001E461746880404D405E039462020B047C3
:104D30006D1C641EF9D52846BDE8F0812DE9F041CF
:104D4000044600251E469046C80301D5302700E0E2
:104D50002027880404D505E041463846B0476D1C3D
:104D6000641EF9D52846BDE8F081000013B54FF068
:104D7000FF33012269460248FEF748F800981CBD3F
:104D8000FC030020FCF76AFEFFF7C0F8FEF760FCAA
:104D9000FEF704FDFEF766FDFEF7BCFCFEF7DAFC4D
:104DA000FFF71CF9FEF79EFDFEF7B4FAFBF7CAFD0C
:104DB000FCF7F2F80120FFF727F9FEF745FEFEF7B2
:104DC00013FC00F00EF8FEE701460020842900D015
:104DD000C81C704710B500B9012000F025FB002069
:104DE00010BD10B500F046FB002010BD7FB50D468C
:104DF00004464169B0F9080081B1A16971B1FFF7BA
:104E0000E3FFD4E905128DE80700D4E900102B4632
:104E1000226900F04EFC039004B070BDFFF7D4FF90
:104E200003A9CDE90001208A2B4682B2D4E9001003
:104E300000F012FC012801D00020EDE70398EBE719
:104E40002DE9F041184C0F460546E6682068001D24
:104E500000F020FA38B9206890F82C100120884022
:104E6000216981432161681C07D137B12168BDE800
:104E7000F0410E48091D00F052BA20683544B54291
:104E80004560216805D2A06BBDE8F041091D00F026
:104E90002EBA606B091D00F02AFAA06A854200D282
:104EA000A562BDE8F0810000200000206805002018
:104EB0002DE9F041054600F03FFA2E4CA068401C59
:104EC000A06020682C4F10B1606940B32DE02560D0
:104ED000A068012829D1002606EB860007EB800098
:104EE00000F0F7F9761C072EF6D323488C3000F03B
:104EF000F0F92148A03000F0ECF91F48B43000F080
:104F0000E8F91D48C83000F0E4F91B48DC3000F037
:104F1000E0F919488C3060631430A06305E0206824
:104F2000E96AC06A884200D82560606A401C6062F5
:104F3000E96A0120226988401043206101EB810069
:104F400007EB8000291D00F0EAF900F015FA60690E
:104F500000280CD02068E96AC06A884207D2074955
:104F60004FF080500860BFF34F8FBFF36F8FBDE8E5
:104F7000F0810000200000208C04002004ED00E0FF
:104F800010B5044690F8510058B101280CD0022801
:104F90000FD0502080F31188BFF34F8FBFF36F8F76
:104FA000FEE7206B00F0FCF92046BDE8104000F061
:104FB000F7B910BD10484FF47051420706D0C01D1C
:104FC0000D4920F00700411AC1F570510B4A00232A
:104FD0000144C2E900030839183A21F007011160C1
:104FE0004B600B600B1AC0E9001393604FF0004058
:104FF00053605061704700007C0500207400002061
:10500000144E154CA6F1C8074FF08058DFF84C90AD
:1050100012E000BF00F090F9F068C568281D00F0AC
:1050200039F9A068401EA0606068401E606000F012
:10503000A3F92846FFF7A4FF60680028EAD1386882
:105040000128F9D9C9F80080BFF34F8FBFF36F8FE4
:10505000F2E70000540500202000002004ED00E0ED
:105060002DE9F0479A46DDE9098481466FF0030394
:10507000206B03EB82021044089E20F0070778079C
:1050800007D0502080F31188BFF34F8FBFF36F8F8D
:10509000FEE7002561B1002023180A5C83F8342064
:1050A0000A5C12B1401C1028F6D384F8435001E08A
:1050B00084F83450072E00D30626E662C4E9116551
:1050C000201D00F011F904F1180000F00DF9246121
:1050D000C6F107006462A061E56484F8505052464E
:1050E0004946384600F0C0F82060B8F1000F01D002
:1050F000C8F80040BDE8F08730B5114900E011461E
:105100000A688242FBD34B685C18844203D1406832
:1051100018444860084643681C18944209D1084C5A
:10512000183C2468A24209D052681A4442600A68B6
:1051300012680260814200D0086030BD0460F9E767
:10514000740000200648416B096829B1416BC968A9
:10515000C9684968816270474FF0FF31FAE7000083
:105160002000002008484068401C4FF0500080F3A9
:10517000118804D0BFF34F8FBFF36F8FFEE7BFF3EB
:105180004F8FBFF36F8FFEE77C0000202DE9F041C9
:105190000546002700F0A4F9324E306808B9FFF741
:1051A00009FF706905424ED1C5B3083568070ED0B6
:1051B00005F00700C0F108000544680707D050203B
:1051C00080F31188BFF34F8FBFF36F8FFEE72DB3CE
:1051D0007068854237D82348183001460C6801E0D2
:1051E00020460C466168A94202D221680029F7D105
:1051F00031688C4227D007682168016060680837F1
:10520000411B10290FD96019420708D0502080F3A4
:105210001188BFF34F8FBFF36F8FFEE713E041603C
:105220006560FFF769FF61687068401A7060B26876
:10523000904200D2B060706901430020C4E90001CF
:10524000F068401CF06000F0C5FA780707D05020E5
:1052500080F31188BFF34F8FBFF36F8FFEE738469F
:10526000BDE8F0815C00002010B5031F4FF0807492
:105270001C601B1F21F001011960191F044B0B60FA
:1052800014390A60091F6FF0020244380A6010BD29
:1052900065510008D0E9013201699A60D0E9012323
:1052A0005A604A68824201D182684A6000220261E3
:1052B0000868401E0860086870470000034B0360E0
:1052C00003F154000860802010607047B400002093
:1052D000704700F108014FF0FF32C0E90112C160D0
:1052E000016100210160704700210161704730B504
:1052F0000B685A1C02D000F1080202E0026904E0C7
:105300002246546825689D42FAD953684B609960DB
:105310008A60516008610168491C016030BD4268C3
:105320004A6093688B609368596091600861016876
:10533000491C016070470000502080F31188BFF3C2
:105340004F8FBFF36F8F0A494868401C486001289F
:105350000CD10848006810F0FF0F07D0502080F3F0
:105360001188BFF34F8FBFF36F8FFEE770470000C8
:105370007C00002004ED00E00849486828B1401E88
:10538000486001D180F311887047502080F3118864
:10539000BFF34F8FBFF36F8FFEE700007C0000204C
:1053A00070B500282AD0164DA0F10804606869691C
:1053B000084207D1502080F31188BFF34F8FBFF30D
:1053C0006F8FFEE722683AB1502080F31188BFF357
:1053D0004F8FBFF36F8FFEE78843606000F080F867
:1053E00060686968084468602046FFF785FE2869A0
:1053F000401C2861BDE8704000F0ECB970BD0000B1
:105400005C0000204FF0E02000210161816105492E
:105410004FF47A720968B1FBF2F1491E416107212C
:10542000016170471C00002010B5020014D00F4825
:10543000006B38B1502080F31188BFF34F8FBFF35A
:105440006F8FFEE700F04CF800211046FFF7F8FCE4
:1054500000F0C0F9002807D105494FF080500860DE
:10546000BFF34F8FBFF36F8F10BD000020000020EF
:1054700004ED00E010B586B00024039405AA04A949
:1054800003A80494FFF71AFFDDE903010094CDE9B6
:10549000011000230EA11048059A00F00AF90F49E7
:1054A0000028C86211D0502080F31188BFF34F8FBD
:1054B000BFF36F8F4FF0FF30886201204861CC60EE
:1054C00006B0BDE8104000F04DB806B010BD0000B9
:1054D00049444C4500000000015000082000002015
:1054E0000248016B491C0163704700002000002046
:1054F00010B51A4C206B10B10120E06110BD0020E6
:10550000E061206821680068096B884204D821683E
:1055100020683431FFF7DCFE20691149B0FA80F0D1
:10552000C0F11F0000EB800051F820206AB101EBB0
:10553000800000F10802416849684160914201D150
:1055400049684160C868206010BD502080F3118810
:10555000BFF34F8FBFF36F8FFEE7000020000020E6
:105560008C0400201CB537480168374A914207D1A6
:10557000502080F31188BFF34F8FBFF36F8FFEE78A
:1055800000683149491E884207D1502080F31188B4
:10559000BFF34F8FBFF36F8FFEE72C490878019060
:1055A000FF20087008788DF800009DF800009DF835
:1055B000002000F0F000904207D0502080F31188C6
:1055C000BFF34F8FBFF36F8FFEE79DF80000204CB5
:1055D00000F0500020700720A06005E09DF800203A
:1055E00052008DF80020401E9DF800201206F5D4D0
:1055F000A060032807D0502080F31188BFF34F8F9D
:10560000BFF36F8FFEE74FF44070A0600198087001
:105610000C482030016841F470010160016841F0DC
:1056200070410160FFF7EEFE00206060FAF7E2FDD6
:105630000848016841F040410160FAF7C7FD0020C9
:105640001CBD000000ED00E071C20F4100E400E06D
:105650007C00002034EF00E02DE9FF5F8346DDE9A8
:105660000E87994616468A469000FFF78FFD050083
:105670001CD05420FFF78AFD040014D000202563BD
:1056800084F85100CDE90240CDE900874B4632460F
:1056900051465846FFF7E4FC2046FFF709FC01207D
:1056A00004B0BDE8F09F2846FFF77AFE4FF0FF30C8
:1056B000F6E7F0B585B0DDE90B640A9DA6B1DCB173
:1056C000542700972663022684F85160002604AF11
:1056D000CDE90246CDE90057FFF7C2FC2046FFF7AF
:1056E000E7FB049805B0F0BD502080F31188BFF3AC
:1056F0004F8FBFF36F8FFEE7502080F31188BFF309
:105700004F8FBFF36F8FFEE72DE9F0412F4C00263E
:10571000206B28B1A069401CA0613046BDE8F08133
:10572000E5686D1CE56013D1606B006838B15020EE
:1057300080F31188BFF34F8FBFF36F8FFEE7606B6D
:10574000A16B6163A063206A401C2062FFF7FAFC32
:10575000A06ADFF87C80854209D3606B0068A0B145
:10576000606BC068C7687868854211D2A062206803
:10577000C06A00EB800158F82100012800D90126F9
:10578000E0690028C9D00126C7E74FF0FF30EDE7F8
:10579000381DFFF77FFDB86A18B107F11800FFF751
:1057A00079FDF96A0120226988401043206101EBEC
:1057B000810108EB8100391DFFF7B1FDF86A21680E
:1057C000C96A8842C9D30126C7E70000200000202B
:1057D0008C0400202DE9F0472C4D00242746286B2F
:1057E00038B1FFF7A9FD286B401E2863286B40B134
:1057F00046E0502080F31188BFF34F8FBFF36F8FC7
:10580000FEE7A968224E0120D1B3A6F1B409804673
:105810003068E8B1F068C46804F11800FFF73AFD99
:10582000201DFFF737FDE06A2A6908FA00F11143ED
:10583000296100EB800109EB8100211DFFF76FFD5D
:10584000E06A2968C96A8842E2D3C5F81C80DFE7AC
:105850000CB1FFF777FCAC6944B14646FFF754FF43
:1058600000B1EE61641EF9D10020A861E86938B189
:105870000849012738070860BFF34F8FBFF36F8FC8
:10588000FFF77AFD3846BDE8F087000020000020D1
:105890004005002004ED00E0DC590008A93E0008A6
:1058A0000000000000000000800000000000000078
:1058B00000000000B8590008BD3E0008FDFF0000D0
:1058C0000000000080000000000000000000000058
:1058D000C4590008CF3E0008FDFF00000000000092
:1058E000800000000000000000000000D059000807
:1058F000D33E0008FDFF0000000000008000000013
:105900000000000000000000000000000000000097
:105910000102030406070809000000000102030455
:105920000000000004000000080000000C0000005F
:1059300000404040404040404040414141414140A2
:105940004040404040404040404040404040404057
:1059500040050202020202020202020202020202E6
:1059600002202020202020202020200202020202EB
:105970000202909090909090101010101010101043
:10598000101010101010101010101010020202024F
:105990000202888888888888080808080808080893
:1059A000080808080808080808080808020202028F
:1059B00040000000315900086D795461736B30323A
:1059C000000000006D795461736B303300000000FB
:1059D0006D795461736B303400000000646566615A
:1059E000756C745461736B00085A00080000002045
:1059F000B4000000DC480008BC5A0008B4000020D5
:105A0000F4460000EC480008000000000000000020
:105A10000000000000000000010000001000000075
:105A2000000000000024F40000000000000000005E
:105A30000000000000000000000000000000000066
:105A40000000000000000000000000000000000056
:105A50000000000000000000000000000000000046
:105A60000000000000000000000000000000000036
:105A70000000000000000000000000000000000026
:105A80000000000000000000AAAAAAAA000000006E
:105A90000000000000000000000000000000000006
:105AA00000000000000000000000000000000000F6
:0C5AB000000000000000000000000000EA
:040000050800019955
:00000001FF
